:100000000C9462000C944A040C9477040C948A00BB
:100010000C948A000C948A000C948A000C948A0038
:100020000C948A000C948A000C948A000C948A0028
:100030000C948A000C948A000C948A000C948A0018
:100040000C9465020C948A000C94B4040C94020580
:100050000C948A000C948A000C948A000C948A00F8
:100060000C948A000C948A000000000024002700F1
:100070002A0000000000250028002B0000000000DE
:1000800023002600290004040404040404040202DA
:100090000202020203030303030301020408102007
:1000A0004080010204081020010204081020000012
:1000B0000007000201000003040600000000000029
:1000C00000006E0611241FBECFEFD8E0DEBFCDBF0B
:1000D00011E0A0E0B1E0EAEBF0E102C005900D9282
:1000E000A431B107D9F711E0A4E1B1E001C01D923C
:1000F000A33DB107E1F710E0C4ECD0E004C02297C3
:10010000FE010E945708C23CD107C9F70E94A4040F
:100110000C945B080C9400008091140190911501DF
:100120000196909315018093140108958091160112
:1001300090911701019690931701809316010895ED
:1001400088E060E00E94800387E060E00E94800316
:1001500085E060E00E94800384E060E00E9480030C
:1001600010921501109214011092170110921601AD
:1001700008958091140190911501209116013091FC
:100180001701821B930B90931901809318018091A2
:100190001801909119016FE070E00E940C087093B3
:1001A0001B0160931A0180911A0190911B01059720
:1001B0001CF084E090E009C080911A0190911B012D
:1001C0008C5F9F4F34F48CEF9FEF90931B018093D3
:1001D0001A0120911A0130911B0181EF9FEFAC01B0
:1001E000249FC001259F900D349F900D11248B57A3
:1001F0009F4F909303018093020120911A01309147
:100200001B01C90144E0880F991F4A95E1F7821B41
:10021000930B8B579F4F9093010180930001609146
:100220000001709101018AE00E94050260910201C3
:100230007091030189E00E94050208950AC088E0D8
:1002400061E00E94800385E061E00E9480030E94DB
:10025000B9008091140190911501805F92407CF368
:1002600008950AC084E061E00E94800387E061E0B5
:100270000E9480030E94B9008091140190911501A1
:10028000865E92407CF308950AC087E061E00E9498
:10029000800385E061E00E9480030E94B9008091A4
:1002A0001401909115018B5194407CF3089502C084
:1002B0000E94A00086E00E94D403892BC9F30E940B
:1002C000A00068EE73E080E090E00E94AD020E9422
:1002D000A0000E9444010E94A0006AEF70E080E04C
:1002E00090E00E94AD020E94A0000E9431010E9495
:1002F000A0006AEF70E080E090E00E94AD020E94F2
:10030000A0000E9444010E94A0006AEF70E080E01B
:1003100090E00E94AD020E94A0000E941E010E9477
:10032000A0006AEF70E080E090E00E94AD020E94C1
:10033000A000609114017091150181EB91E04AE0F9
:1003400050E00E94CE07609116017091170181EB79
:1003500091E04AE050E00E94CE0781EB91E069E035
:1003600070E04AE050E00E94CE0781EB91E06AE045
:1003700070E04AE050E00E94CE07089580E06CE80B
:1003800070E043E050E00E94270481E066E970E0FD
:1003900043E050E00E94270481EB91E040E855E201
:1003A00060E070E00E943D0586E060E00E9441034D
:1003B00088E061E00E94410387E061E00E94410320
:1003C00089E061E00E9441038DE061E00E94410309
:1003D00088E060E00E94800387E060E00E94800384
:1003E00085E061E00E94410384E061E00E944103F6
:1003F0008AE061E00E94410385E060E00E948003A2
:1004000084E060E00E94800308951F93CF93DF9300
:10041000182FEB0161E00E944103209709F44AC0C4
:10042000CF3FD10509F449C0E12FF0E0E255FF4F7D
:1004300084918330C1F0843028F4813051F08230CF
:10044000B1F50CC0863019F1873049F1843079F567
:1004500014C084B5806884BDC7BD33C084B58062D4
:1004600084BDC8BD2EC080918000806880938000CC
:10047000D0938900C093880024C08091800080625E
:1004800080938000D0938B00C0938A001AC0809123
:10049000B00080688093B000C093B30012C0809118
:1004A000B00080628093B000C093B4000AC0C0382E
:1004B000D1051CF4812F60E002C0812F61E00E9411
:1004C0008003DF91CF911F9108951F920F920FB675
:1004D0000F9211242F933F938F939F93AF93BF93CA
:1004E0008091200190912101A0912201B0912301DE
:1004F000309124010196A11DB11D232F2D5F2D37B1
:1005000020F02D570196A11DB11D20932401809349
:10051000200190932101A0932201B09323018091A7
:100520001C0190911D01A0911E01B0911F01019627
:10053000A11DB11D80931C0190931D01A0931E016C
:10054000B0931F01BF91AF919F918F913F912F91D8
:100550000F900FBE0F901F9018959B01AC017FB7B5
:10056000F89480911C0190911D01A0911E01B09101
:100570001F0166B5A89B05C06F3F19F00196A11D2C
:10058000B11D7FBFBA2FA92F982F8827860F911DE5
:10059000A11DB11D62E0880F991FAA1FBB1F6A959C
:1005A000D1F7BC012DC0FFB7F89480911C01909148
:1005B0001D01A0911E01B0911F01E6B5A89B05C0C9
:1005C000EF3F19F00196A11DB11DFFBFBA2FA92F52
:1005D000982F88278E0F911DA11DB11DE2E0880F75
:1005E000991FAA1FBB1FEA95D1F7861B970B885E40
:1005F0009340C8F2215030404040504068517C4FF9
:10060000211531054105510571F60895789484B599
:10061000826084BD84B5816084BD85B5826085BDFE
:1006200085B5816085BDEEE6F0E0808181608083E4
:10063000E1E8F0E0108280818260808380818160C7
:100640008083E0E8F0E0808181608083E1EBF0E08E
:10065000808184608083E0EBF0E080818160808332
:10066000EAE7F0E08081846080838081826080831B
:100670008081816080838081806880831092C10046
:100680000895CF93DF93482F50E0CA0186569F4FBD
:10069000FC0134914A575F4FFA018491882369F134
:1006A00090E0880F991FFC01E859FF4FA591B49184
:1006B000FC01EE58FF4FC591D491662351F42FB73A
:1006C000F8948C91932F909589238C93888189231A
:1006D0000BC0623061F42FB7F8948C91932F9095F2
:1006E00089238C938881832B88832FBF06C09FB773
:1006F000F8948C91832B8C939FBFDF91CF910895B9
:10070000482F50E0CA0182559F4FFC012491CA0135
:1007100086569F4FFC0194914A575F4FFA013491DE
:10072000332309F440C0222351F1233071F02430E7
:1007300028F42130A1F0223011F514C02630B1F098
:100740002730C1F02430D9F404C0809180008F7725
:1007500003C0809180008F7D8093800010C084B59D
:100760008F7702C084B58F7D84BD09C08091B000B1
:100770008F7703C08091B0008F7D8093B000E32F0E
:10078000F0E0EE0FFF1FEE58FF4FA591B4912FB789
:10079000F894662321F48C919095892302C08C9162
:1007A000892B8C932FBF0895682F70E0CB01825561
:1007B0009F4FFC012491CB0186569F4FFC01449131
:1007C0006A577F4FFB019491992319F420E030E0A0
:1007D0003CC0222351F1233071F0243028F4213021
:1007E000A1F0223011F514C02630B1F02730C1F04D
:1007F0002430D9F404C0809180008F7703C08091A9
:1008000080008F7D8093800010C084B58F7702C0F8
:1008100084B58F7D84BD09C08091B0008F7703C0FF
:100820008091B0008F7D8093B000892F90E0880F79
:10083000991F84589F4FFC01A591B4918C9120E0A1
:1008400030E0842311F021E030E0C90108958230C6
:1008500000F5E82FF0E0EE0FFF1FEB5DFE4F718318
:100860006083882319F08130A1F408C08091690069
:100870008C7F842B80936900E89A089580916900A9
:10088000440F551F440F551F837F842B80936900AD
:10089000E99A08951F920F920FB60F9211242F9389
:1008A0003F934F935F936F937F938F939F93AF93F8
:1008B000BF93EF93FF938091250190912601892B9F
:1008C00029F0E0912501F09126010995FF91EF9122
:1008D000BF91AF919F918F917F916F915F914F9158
:1008E0003F912F910F900FBE0F901F9018951F9260
:1008F0000F920FB60F9211242F933F934F935F9354
:100900006F937F938F939F93AF93BF93EF93FF93D7
:100910008091270190912801892B29F0E0912701EE
:10092000F09128010995FF91EF91BF91AF919F91AF
:100930008F917F916F915F914F913F912F910F9088
:100940000FBE0F901F901895CF93DF930E94060360
:100950000E94BE01CFEED4E00E9457012097E1F340
:100960000E94EF04F9CF08951F920F920FB60F92D5
:1009700011242F933F934F938F939F93EF93FF9364
:100980008091C00082FD1DC04091C6002091690188
:1009900030916A012F5F3F4F2F73307080916B0150
:1009A00090916C012817390771F0E0916901F0917D
:1009B0006A01E75DFE4F408330936A01209369012D
:1009C00002C08091C600FF91EF919F918F914F914E
:1009D0003F912F910F900FBE0F901F901895E091AF
:1009E000BD01F091BE01E05CFF4F819191912081AA
:1009F0003181821B930B8F739070892B11F00E94B1
:100A0000B30408951F920F920FB60F9211242F93E3
:100A10003F938F939F93EF93FF932091AD0130917C
:100A2000AE018091AF019091B0012817390731F4E0
:100A30008091C1008F7D8093C10014C0E091AF010F
:100A4000F091B001E359FE4F20818091AF01909168
:100A5000B00101968F7390709093B0018093AF01B5
:100A60002093C600FF91EF919F918F913F912F911D
:100A70000F900FBE0F901F901895AF92BF92DF920C
:100A8000EF92FF920F931F93CF93DF93EC017A01C4
:100A90008B01DD24403081EE580780E0680780E05C
:100AA000780711F0DD24D39491E0A92EB12CEC89C4
:100AB000FD89DD2069F0C50108A002C0880F991FDB
:100AC0000A94E2F7808360E079E08DE390E005C06E
:100AD000108260E874E88EE190E0A80197010E941E
:100AE0001F0821503040404050405695479537955B
:100AF000279580E12030380720F0DD2011F0DD243B
:100B0000D6CFE889F9893083EA89FB89208319A245
:100B1000EE89FF89408121E030E0C9010C8C02C0E0
:100B2000880F991F0A94E2F7482B4083EE89FF89CA
:100B30004081C9010D8C02C0880F991F0A94E2F709
:100B4000482B4083EE89FF894081C9010E8C02C089
:100B5000880F991F0A94E2F7482B4083EE89FF899A
:100B600080810F8C02C0220F331F0A94E2F7209578
:100B700028232083DF91CF911F910F91FF90EF9059
:100B8000DF90BF90AF900895DC011C96ED91FC9131
:100B90001D97E05CFF4F2191319180819181281B4D
:100BA000390B2F733070C9010895DC011C96ED914B
:100BB000FC911D97E05CFF4F20813181E054F040B3
:100BC000DF01AE5BBF4F8D919C91119728173907BC
:100BD00019F42FEF3FEF07C08D919C91E80FF91F9B
:100BE0008081282F30E0C9010895DC011C96ED9129
:100BF000FC911D97E05CFF4F20813181E054F04073
:100C0000DF01AE5BBF4F8D919C911197281739077B
:100C100019F42FEF3FEF10C08D919C911197E80FC1
:100C2000F91F20818D919C91119701968F7390707F
:100C300011969C938E9330E0C9010895DC01919642
:100C40008C919197882339F05496ED91FC915597AA
:100C5000808186FFF9CF91961C920895CF93DF9300
:100C6000EC01EE85FF85E05CFF4F20813181E0548F
:100C7000F0402F5F3F4F2F733070DF01AE5BBF4FEF
:100C80008D919C91119728173907D1F3E05CFF4FA4
:100C900080819181E054F040E80FF91F6083EE8578
:100CA000FF85E05CFF4F31832083EE89FF8920813F
:100CB00081E090E00F8C02C0880F991F0A94E2F740
:100CC000282B208381E089A3EC89FD8980818064C1
:100CD000808381E090E0DF91CF9108951092B4017C
:100CE0001092B30188EE93E0A0E0B0E08093B501EC
:100CF0009093B601A093B701B093B80188E091E05A
:100D00009093B2018093B10189E291E09093BE018A
:100D10008093BD018DE691E09093C0018093BF0167
:100D200085EC90E09093C2018093C10184EC90E047
:100D30009093C4018093C30180EC90E09093C6012E
:100D40008093C50181EC90E09093C8018093C70126
:100D500082EC90E09093CA018093C90186EC90E008
:100D60009093CC018093CB0184E08093CD0183E00C
:100D70008093CE0187E08093CF0185E08093D001FE
:100D800081E08093D1010895CF92DF92EF92FF929C
:100D90000F931F93CF93DF937C016B018A01C0E017
:100DA000D0E00FC0D6016D916D01D701ED91FC919E
:100DB0000190F081E02DC7010995C80FD91F01509E
:100DC00010400115110571F7CE01DF91CF911F91F0
:100DD0000F91FF90EF90DF90CF900895EF92FF92E8
:100DE0000F931F938C01DC01ED91FC910190F08138
:100DF000E02D6DE009957C01D801ED91FC91019009
:100E0000F081E02DC8016AE009959C012E0D3F1D7F
:100E1000C9011F910F91FF90EF900895CF93DF9339
:100E2000EC016115710519F420E030E00FC0DB0121
:100E30000D900020E9F71197A61BB70BE881F98107
:100E40000280F381E02DAD0109959C01C901DF917C
:100E5000CF9108954F925F927F928F929F92AF921F
:100E6000BF92CF92DF92EF92FF920F931F93DF9387
:100E7000CF93CDB7DEB7A1970FB6F894DEBF0FBE04
:100E8000CDBF2C01742ECB01223008F42AE019A228
:100E900031E2C32ED12CCC0EDD1E822E9924AA2441
:100EA000BB24672D752FA50194010E941F087901AD
:100EB0008A01C801B701A50194010E94ED07472DE1
:100EC000461B0894C108D1084A3014F4405D01C0A3
:100ED000495CF6014083E114F1040105110521F09C
:100EE0007E2C5F2DC801DDCFC201B6010E940E0726
:100EF000A1960FB6F894DEBF0FBECDBFCF91DF91A4
:100F00001F910F91FF90EF90DF90CF90BF90AF9027
:100F10009F908F907F905F904F900895CF92DF9237
:100F2000EF92FF920F931F93CF93DF93EC016A012F
:100F30007B012115310541F4E881F9810190F081AF
:100F4000E02D642F09951FC02A303105D1F477FFB9
:100F500017C0E881F9810190F081E02D6DE20995DB
:100F60008C0144275527BA014C195D096E097F0988
:100F7000CE012AE00E942A079801280F391F04C0D9
:100F80002AE00E942A079C01C901DF91CF911F919D
:100F90000F91FF90EF90DF90CF900895CF92DF9266
:100FA000EF92FF920F931F936C017B019A01002730
:100FB000F7FC0095102FB801A7010E948E078C0145
:100FC000C6010E94EE06080F191FC8011F910F915C
:100FD000FF90EF90DF90CF900895629FD001739FB4
:100FE000F001829FE00DF11D649FE00DF11D929FC5
:100FF000F00D839FF00D749FF00D659FF00D992704
:10100000729FB00DE11DF91F639FB00DE11DF91F27
:10101000BD01CF011124089597FB092E07260AD0A0
:1010200077FD04D02ED006D000201AF4709561957B
:101030007F4F0895F6F7909581959F4F0895A1E20F
:101040001A2EAA1BBB1BFD010DC0AA1FBB1FEE1F42
:10105000FF1FA217B307E407F50720F0A21BB30B8D
:10106000E40BF50B661F771F881F991F1A9469F709
:1010700060957095809590959B01AC01BD01CF0165
:101080000895AA1BBB1B51E107C0AA1FBB1FA617CF
:10109000B70710F0A61BB70B881F991F5A95A9F721
:1010A00080959095BC01CD010895EE0FFF1F05902E
:0A10B000F491E02D0994F894FFCFAD
:1010BA0064006400000000002E06C406C405F5059D
:0410CA00D5051E0624
:00000001FF
