:100000000C9462000C948A000C948A000C948A0070
:100010000C948A000C948A000C948A000C948A0038
:100020000C948A000C948A000C948A000C948A0028
:100030000C948A000C948A000C948A000C948A0018
:100040000C9453020C948A000C94C1040C940F0578
:100050000C948A000C948A000C948A000C948A00F8
:100060000C948A000C948A000000000024002700F1
:100070002A0000000000250028002B0000000000DE
:1000800023002600290004040404040404040202DA
:100090000202020203030303030301020408102007
:1000A0004080010204081020010204081020000012
:1000B0000007000201000003040600000000000029
:1000C00000007B0611241FBECFEFD8E0DEBFCDBFFE
:1000D00011E0A0E0B1E0E6E2FFE002C005900D9281
:1000E000A632B107D9F711E0A6E2B1E001C01D9236
:1000F000AF3DB107E1F710E0C4ECD0E004C02297B7
:10010000FE010E948D07C23CD107C9F70E94B104CD
:100110000C9491070C9400008DEB91E060E071E08D
:100120000E94370787E060E00E946E0384E060E091
:100130000E946E0387E061E00E946E036AE070E057
:1001400080E090E00E949B0284E061E00E946E03E8
:1001500064E670E080E090E00E949B0208958DEBE1
:1001600091E063E071E00E94370788E060E00E9460
:100170006E0385E060E00E946E0388E061E00E940B
:100180006E036AE070E080E090E00E949B0285E0F0
:1001900061E00E946E0364E670E080E090E00E94FF
:1001A0009B02089587E00E94C203019721F487E033
:1001B00060E00E946E0385E00E94C203019721F473
:1001C00085E060E00E946E0388E00E94C203019710
:1001D00021F488E060E00E946E0384E00E94C20384
:1001E000019721F484E060E00E946E0308958DEB96
:1001F00091E066E071E00E9437070E94D20087E03C
:1002000061E00E946E036AE070E080E090E00E948E
:100210009B0285E061E00E946E0364E670E080E08E
:1002200090E00E949B020895CF93DF938CE00E94A0
:10023000C203892B09F481C067E070E080E090E0A0
:100240000E949B0210922701109226018CE00E94CE
:10025000C203892B09F471C08CE061E020E432E430
:100260004FE050E00E941504685A744E8F4F9F4F24
:10027000609328017093290180932A0190932B01A8
:1002800069557B41804090406F507742804090405C
:1002900070F40E94D2008DEB91E069E071E00E9461
:1002A00037076AE070E080E090E00E949B02809156
:1002B000280190912901A0912A01B0912B01895622
:1002C0009244A040B0408B5D9E41A040B04010F4ED
:1002D0000E94AF008091280190912901A0912A01EC
:1002E000B0912B0185549146A040B0408B58934269
:1002F000A040B04010F40E948C00809128019091A1
:100300002901A0912A01B0912B01815D9448A04060
:10031000B04098F00E94F70010C0809126019091A3
:10032000270101969093270180932601D0932701FE
:10033000C09326010E94D20002C0C0E1D7E28CE047
:100340000E94C203892B49F3DF91CF9108950F9347
:100350001F93E0911401F0911501808180628083E8
:100360008CE060E00E942F030DEB11E0C80140E833
:1003700055E260E070E00E944A058DE061E00E9475
:100380002F0388E061E00E942F0387E061E00E9474
:100390002F0384E061E00E942F0385E061E00E946A
:1003A0002F0388E060E00E946E0387E060E00E9417
:1003B0006E0384E060E00E946E0385E060E00E94CE
:1003C0006E038AE064E670E00E94F30189E06EEB60
:1003D00070E00E94F301C8016CE071E00E943707F1
:1003E0001F910F9108951F93CF93DF93182FEB0167
:1003F00061E00E942F03209709F44AC0CF3FD10546
:1004000009F449C0E12FF0E0E255FF4F84918330B9
:10041000C1F0843028F4813051F08230B1F50CC045
:10042000863019F1873049F1843079F514C084B5EC
:10043000806884BDC7BD33C084B5806284BDC8BD3B
:100440002EC080918000806880938000D0938900C6
:10045000C093880024C080918000806280938000D7
:10046000D0938B00C0938A001AC08091B00080683E
:100470008093B000C093B30012C08091B00080623E
:100480008093B000C093B4000AC0C038D1051CF4FA
:10049000812F60E002C0812F61E00E946E03DF9136
:1004A000CF911F9108951F920F920FB60F921124B2
:1004B0002F933F938F939F93AF93BF93809130017E
:1004C00090913101A0913201B0913301309134010A
:1004D0000196A11DB11D232F2D5F2D3720F02D5723
:1004E0000196A11DB11D209334018093300190939A
:1004F0003101A0933201B093330180912C0190918E
:100500002D01A0912E01B0912F010196A11DB11DC9
:1005100080932C0190932D01A0932E01B0932F0175
:10052000BF91AF919F918F913F912F910F900FBEEF
:100530000F901F9018959B01AC017FB7F8948091A4
:100540002C0190912D01A0912E01B0912F0166B543
:10055000A89B05C06F3F19F00196A11DB11D7FBF7B
:10056000BA2FA92F982F8827860F911DA11DB11D85
:1005700062E0880F991FAA1FBB1F6A95D1F7BC01C3
:100580002DC0FFB7F89480912C0190912D01A0917E
:100590002E01B0912F01E6B5A89B05C0EF3F19F0E1
:1005A0000196A11DB11DFFBFBA2FA92F982F882733
:1005B0008E0F911DA11DB11DE2E0880F991FAA1F8A
:1005C000BB1FEA95D1F7861B970B885E9340C8F254
:1005D000215030404040504068517C4F211531053A
:1005E0004105510571F60895789484B5826084BD03
:1005F00084B5816084BD85B5826085BD85B5816027
:1006000085BDEEE6F0E0808181608083E1E8F0E086
:100610001082808182608083808181608083E0E8B5
:10062000F0E0808181608083E1EBF0E08081846094
:100630008083E0EBF0E0808181608083EAE7F0E096
:1006400080818460808380818260808380818160FA
:1006500080838081806880831092C1000895CF9349
:10066000DF93482F50E0CA0186569F4FFC0134911A
:100670004A575F4FFA018491882369F190E0880F0F
:10068000991FFC01E859FF4FA591B491FC01EE5868
:10069000FF4FC591D491662351F42FB7F8948C91F4
:1006A000932F909589238C93888189230BC0623086
:1006B00061F42FB7F8948C91932F909589238C93A4
:1006C0008881832B88832FBF06C09FB7F8948C91B5
:1006D000832B8C939FBFDF91CF910895482F50E0DB
:1006E000CA0182559F4FFC012491CA0186569F4F33
:1006F000FC0194914A575F4FFA013491332309F476
:1007000040C0222351F1233071F0243028F42130ED
:10071000A1F0223011F514C02630B1F02730C1F01D
:100720002430D9F404C0809180008F7703C0809179
:1007300080008F7D8093800010C084B58F7702C0C9
:1007400084B58F7D84BD09C08091B0008F7703C0D0
:100750008091B0008F7D8093B000E32FF0E0EE0F2A
:10076000FF1FEE58FF4FA591B4912FB7F894662361
:1007700021F48C919095892302C08C91892B8C93C4
:100780002FBF0895682F70E0CB0182559F4FFC0169
:100790002491CB0186569F4FFC0144916A577F4FAD
:1007A000FB019491992319F420E030E03CC022230E
:1007B00051F1233071F0243028F42130A1F022309F
:1007C00011F514C02630B1F02730C1F02430D9F42F
:1007D00004C0809180008F7703C0809180008F7D5E
:1007E0008093800010C084B58F7702C084B58F7D60
:1007F00084BD09C08091B0008F7703C08091B000A4
:100800008F7D8093B000892F90E0880F991F8458C6
:100810009F4FFC01A591B4918C9120E030E084239E
:1008200011F021E030E0C90108958F929F92AF92BC
:10083000BF92CF92DF92EF92FF920F931F93CF93CD
:10084000DF93A82FB0E0CD0186569F4FFC01849026
:10085000AA57BF4FFD018491662311F4992401C06A
:10086000982C6FEFA62E6FEFB62E6FEFC62E6FE0AF
:10087000D62EA222B322C422D522682F70E0660FA2
:10088000771F64587F4FEE24FF248701FB01A59159
:10089000B4910BC0EA14FB040C051D0509F44EC00D
:1008A0000894E11CF11C011D111D8C9188218915F2
:1008B00089F30CC0EA14FB040C051D0509F43EC0C5
:1008C0000894E11CF11C011D111D03C0FB01A59141
:1008D000B4918C918821891569F720E030E040E0DF
:1008E00050E0FB01C591D4910FC0DA01C9018E0D12
:1008F0009F1DA01FB11F8A159B05AC05BD05F1F01A
:100900002F5F3F4F4F4F5F4F88818821891569F3D3
:10091000CA01B90125E130E040E050E00E944A07F9
:100920009B01AC01205F3F4F4F4F5F4F84E05695D6
:100930004795379527958A95D1F704C020E030E098
:1009400040E050E0B901CA01DF91CF911F910F91B2
:10095000FF90EF90DF90CF90BF90AF909F908F90DF
:100960000895CF93DF930E94F4020E94A701CCEF79
:10097000D4E00E9414012097E1F30E94FC04F9CF17
:1009800008951F920F920FB60F9211242F933F9349
:100990004F938F939F93EF93FF938091C00082FDBD
:1009A0001DC04091C60020917501309176012F5FE6
:1009B0003F4F2F7330708091770190917801281705
:1009C000390771F0E0917501F0917601EB5CFE4F13
:1009D0004083309376012093750102C08091C60058
:1009E000FF91EF919F918F914F913F912F910F9098
:1009F0000FBE0F901F901895E091C901F091CA01A8
:100A0000E05CFF4F8191919120813181821B930B9A
:100A10008F739070892B11F00E94C00408951F926B
:100A20000F920FB60F9211242F933F938F939F93A2
:100A3000EF93FF932091B9013091BA018091BB01EE
:100A40009091BC012817390731F48091C1008F7D46
:100A50008093C10014C0E091BB01F091BC01E75844
:100A6000FE4F20818091BB019091BC0101968F7354
:100A700090709093BC018093BB012093C600FF91BE
:100A8000EF919F918F913F912F910F900FBE0F90FB
:100A90001F901895AF92BF92DF92EF92FF920F9343
:100AA0001F93CF93DF93EC017A018B01DD2440305B
:100AB00081EE580780E0680780E0780711F0DD24B8
:100AC000D39491E0A92EB12CEC89FD89DD2069F049
:100AD000C50108A002C0880F991F0A94E2F780831D
:100AE00060E079E08DE390E005C0108260E874E892
:100AF0008EE190E0A80197010E94690721503040E3
:100B000040405040569547953795279580E12030D5
:100B1000380720F0DD2011F0DD24D6CFE889F989EF
:100B20003083EA89FB89208319A2EE89FF894081FD
:100B300021E030E0C9010C8C02C0880F991F0A9493
:100B4000E2F7482B4083EE89FF894081C9010D8C73
:100B500002C0880F991F0A94E2F7482B4083EE8960
:100B6000FF894081C9010E8C02C0880F991F0A9429
:100B7000E2F7482B4083EE89FF8980810F8C02C009
:100B8000220F331F0A94E2F7209528232083DF9158
:100B9000CF911F910F91FF90EF90DF90BF90AF909A
:100BA0000895DC011C96ED91FC911D97E05CFF4FD0
:100BB0002191319180819181281B390B2F733070E5
:100BC000C9010895DC011C96ED91FC911D97E05C34
:100BD000FF4F20813181E054F040DF01AE5BBF4F19
:100BE0008D919C9111972817390719F42FEF3FEF3A
:100BF00007C08D919C91E80FF91F8081282F30E06C
:100C0000C9010895DC011C96ED91FC911D97E05CF3
:100C1000FF4F20813181E054F040DF01AE5BBF4FD8
:100C20008D919C9111972817390719F42FEF3FEFF9
:100C300010C08D919C911197E80FF91F20818D9123
:100C40009C91119701968F73907011969C938E933F
:100C500030E0C9010895DC0191968C919197882329
:100C600039F05496ED91FC915597808186FFF9CF2C
:100C700091961C920895CF93DF93EC01EE85FF854A
:100C8000E05CFF4F20813181E054F0402F5F3F4F07
:100C90002F733070DF01AE5BBF4F8D919C91119728
:100CA00028173907D1F3E05CFF4F80819181E05430
:100CB000F040E80FF91F6083EE85FF85E05CFF4F91
:100CC00031832083EE89FF89208181E090E00F8CC1
:100CD00002C0880F991F0A94E2F7282B208381E035
:100CE00089A3EC89FD8980818064808381E090E024
:100CF000DF91CF9108951092C0011092BF0188EE4C
:100D000093E0A0E0B0E08093C1019093C201A09372
:100D1000C301B093C4018AE191E09093BE01809336
:100D2000BD0185E391E09093CA018093C90189E7F1
:100D300091E09093CC018093CB0185EC90E090936F
:100D4000CE018093CD0184EC90E09093D00180930C
:100D5000CF0180EC90E09093D2018093D10181EC9F
:100D600090E09093D4018093D30182EC90E0909333
:100D7000D6018093D50186EC90E09093D8018093C2
:100D8000D70184E08093D90183E08093DA0187E082
:100D90008093DB0185E08093DC0181E08093DD01BD
:100DA0000895CF92DF92EF92FF920F931F93CF930C
:100DB000DF937C016B018A01C0E0D0E00FC0D60157
:100DC0006D916D01D701ED91FC910190F081E02DC5
:100DD000C7010995C80FD91F015010400115110511
:100DE00071F7CE01DF91CF911F910F91FF90EF909E
:100DF000DF90CF900895EF92FF920F931F938C0195
:100E0000DC01ED91FC910190F081E02D6DE0099500
:100E10007C01D801ED91FC910190F081E02DC80199
:100E20006AE009959C012E0D3F1DC9011F910F918C
:100E3000FF90EF900895CF93DF93EC01611571055A
:100E400019F420E030E00FC0DB010D900020E9F73D
:100E50001197A61BB70BE881F9810280F381E02D81
:100E6000AD0109959C01C901DF91CF910895EF92E1
:100E7000FF920F931F937C010E941B078C01C701F7
:100E80000E94FB06080F191FC8011F910F91FF90C8
:100E9000EF900895629FD001739FF001829FE00D53
:100EA000F11D649FE00DF11D929FF00D839FF00DE9
:100EB000749FF00D659FF00D9927729FB00DE11D95
:100EC000F91F639FB00DE11DF91FBD01CF01112472
:100ED0000895A1E21A2EAA1BBB1BFD010DC0AA1F7B
:100EE000BB1FEE1FFF1FA217B307E407F50720F093
:100EF000A21BB30BE40BF50B661F771F881F991F0E
:100F00001A9469F760957095809590959B01AC0156
:100F1000BD01CF010895EE0FFF1F0590F491E02D64
:060F20000994F894FFCFD4
:100F2600205200204C0020460020530057656C6379
:100F36006F6D65002400000000003B06D106D10558
:060F46000206E2052B0685
:00000001FF
