:100000000C9463000C94B2070C94DF070C948B00E3
:100010000C948B000C948B000C948B000C948B0034
:100020000C948B000C948B000C948B000C948B0024
:100030000C948B000C948B000C948B000C948B0014
:100040000C94BF050C948B000C941C080C946A084B
:100050000C948B000C948B000C948B000C948B00F4
:100060000C948B000C948B000000000024002700EF
:100070002A0000000000250028002B0000000000DE
:1000800023002600290004040404040404040202DA
:100090000202020203030303030301020408102007
:1000A0004080010204081020010204081020000012
:1000B0000007000201000003040600000000000029
:1000C0000000BB00D60911241FBECFEFD8E0DEBF71
:1000D000CDBF11E0A0E0B1E0E4E5FDE102C0059094
:1000E0000D92A633B107D9F712E0A6E3B1E001C043
:1000F0001D92AA33B107E1F710E0C6ECD0E004C0CE
:100100002297FE010E94A40EC23CD107C9F70E94AB
:100110000C080C94A80E0C94000060913E017091A4
:100120003F01809140019091410120E030E040E8A2
:100130005FE30E94430C60933E0170933F01809304
:1001400040019093410108956091420170914301F3
:10015000809144019091450120E030E040E85FE368
:100160000E94430C609342017093430180934401C9
:10017000909345010895AF92BF92CF92DF92EF9294
:10018000FF920F931F9300D000D000D080E090E04A
:10019000A0E8BFE3EDB7FEB781839283A383B48366
:1001A000168215828AE491E062E471E046E351E050
:1001B00026E431E00F2EF0E0EF2EF0E0FF2EF0E825
:1001C0000F2FFFE31F2FF02D570168010E94CA0473
:1001D0008DB79EB706960FB6F8949EBF0FBE8DBF23
:1001E0001F910F91FF90EF90DF90CF90BF90AF9055
:1001F000089588E060E00E94E80685E060E00E94E3
:10020000E80687E060E00E94E80684E060E00E9483
:10021000E806089586E00E943C07892BD9F38DE01B
:1002200061E00E94E80664E670E080E090E00E94F1
:10023000150687E061E00E94E80684E061E00E9424
:10024000E80684E064E670E00E945F0587E064E60B
:1002500070E00E945F0536C08AE491E00E94AC0322
:100260006091360170913701809138019091390188
:100270000E94130D9B01AC0184E0B9010E945F054F
:1002800040913601509137016091380170913901E8
:1002900088E192E022E030E00E942C0C88E192E0BC
:1002A00060E071E00E94450B40913A0150913B01A2
:1002B00060913C0170913D0188E192E022E030E0E4
:1002C0000E942F0C60913E0170913F01809140018E
:1002D0009091410120E030E848E154E40E94A70CED
:1002E000882384F46091420170914301809144011C
:1002F0009091450120E030E848E154E40E94A70CC9
:1003000087FDAACF88E192E069E071E00E94450B89
:1003100040913E0150913F01609140017091410137
:1003200088E192E022E030E00E942C0C88E192E02B
:1003300060E171E00E94450B409142015091430100
:10034000609144017091450188E192E022E030E043
:100350000E942F0C089588E192E040E855E260E0A9
:1003600070E00E94A50880E06DE870E043E050E096
:100370000E948F0781E064EA70E043E050E00E9451
:100380008F0787E061E00E94A90688E061E00E9493
:10039000A90684E061E00E94A90685E061E00E9470
:1003A000A9068DE061E00E94A9068DE060E00E9450
:1003B000E80687E060E00E94E80688E060E00E94CE
:1003C000E80684E060E00E94E80685E060E00E94C4
:1003D000E8068AE062E370E00E945F0589E062E37C
:1003E00070E00E945F0580E090E0A0E0B0E08093C4
:1003F0003E0190933F01A0934001B093410180934F
:10040000420190934301A0934401B09345018AE4D3
:1004100091E061E070E00E9458030E94F9000895A5
:100420002F923F924F925F926F927F928F929F9204
:10043000AF92BF92CF92DF92EF92FF920F931F93F2
:10044000DF93CF9300D000D0CDB7DEB71C01498336
:100450005A836B837C834801590126013701CB0104
:10046000BA0120E030E040E050E00E94A70C87FD98
:100470008CC0C501B40120E030E040E050E00E94B3
:10048000A70C87FD82C0C701B60120E030E040E044
:1004900050E00E94A70C87FD78C089819A81AB81CA
:1004A000BC81F10180839183A283B383D10114962F
:1004B0008D929D92AD92BC921797C086D186E286AE
:1004C000F38664A575A586A597A50E94440D20E036
:1004D00030E04AE754E40E94AB0C7B018C01898137
:1004E0009A81AB81BC81F10184879587A687B78704
:1004F000C501B401A80197010E94FA0D5B016C01CE
:10050000D10150966D937D938D939C935397C30126
:10051000B201A80197010E94AB0C7B018C01F10193
:10052000648B758B868B978B808D918D019769F588
:1005300060E070E080E090E029813A814B815C814D
:100540000E94420CD1011C966D937D938D939C93D8
:100550001F9760E070E080E090E0A60195010E94A6
:10056000420CF101608B718B828B938B60E070E0A9
:1005700080E090E0A80197010E94420CD1015496BE
:100580006D937D938D939C9357970F900F900F9041
:100590000F90CF91DF911F910F91FF90EF90DF901F
:1005A000CF90BF90AF909F908F907F906F905F9013
:1005B0004F903F902F9008954F925F926F927F924D
:1005C0008F929F92AF92BF92CF92DF92EF92FF9263
:1005D0000F931F93CF93DF93EC013A014B01780106
:1005E0008901CB01BA01A80197010E94F60D87FF8E
:1005F0004EC068AA79AA8AAA9BAAECAAFDAA0EAB49
:100600001FAB88AD882309F442C04C8C5D8CF2018D
:10061000A080B180C280D380C601B501A801970136
:100620000E94F60D181634F4F201E082F182028382
:1006300013830DC0C601B501A40193010E94A70C4C
:1006400088232CF4F2016082718282829382ACA0B2
:10065000BDA0CEA0DFA0ECA8FDA80EA91FA9C601D1
:10066000B501A80197010E94F60D181664F0E8A8DC
:10067000F9A80AA91BA9C601B501A80197010E9402
:10068000A70C882324F4ECA2FDA20EA31FA3DF91E4
:10069000CF911F910F91FF90EF90DF90CF90BF907F
:1006A000AF909F908F907F906F905F904F90089544
:1006B0009F92AF92BF92CF92DF92EF92FF920F93F1
:1006C0001F93CF93DF93EC0199246130710511F4EE
:1006D0009924939488AD91E08927981681F5EC8D43
:1006E000FD8DE080F18002811381ECA2FDA20EA3BA
:1006F0001FA3EA8DFB8D80819181A281B38188A7A0
:1007000099A7AAA7BBA7ACA8BDA8CEA8DFA8C80177
:10071000B701A60195010E94F60D181664F0A8A86D
:10072000B9A8CAA8DBA8C801B701A60195010E9413
:10073000A70C882324F4ACA2BDA2CEA2DFA298AE5F
:10074000DF91CF911F910F91FF90EF90DF90CF90AD
:10075000BF90AF909F9008952F923F924F925F92DB
:100760006F927F928F929F92AF92BF92CF92DF92C1
:10077000EF92FF920F931F93DF93CF9300D000D09F
:1007800000D0CDB7DEB79E838D83DC01D8968C91E7
:10079000882309F4E5C00E94070669837A838B8366
:1007A0009C83ED81FE8180A191A1A2A1B3A12981A9
:1007B0003A814B815C81281B390B4A0B5B0B84A56A
:1007C00095A5A6A5B7A5281739074A075B0708F41A
:1007D000C7C0028CF38DE02D208031804280538091
:1007E000AD81BE815E96ED91FC915F9760817181D4
:1007F00082819381A20191010E94420C3B014C0134
:10080000ED81FE8120893189428953890E94FA0D48
:10081000AD81BE8194962D913D914D915C919797BC
:100820000E94430C7B018C01ED81FE8164A375A3C2
:1008300086A397A3A4A8B5A8C6A8D7A8A601950182
:100840000E94F60D181674F0ED81FE81A0A8B1A8E3
:10085000C2A8D3A8C801B701A60195010E94A70CA0
:10086000882344F4AD81BE819496AD92BD92CD9221
:10087000DC929797C401B301ED81FE812485358513
:10088000468557850E94FA0DAD81BE8194962D91C3
:100890003D914D915C9197970E94430C7B018C0197
:1008A000C201B101ED81FE8120A531A542A553A56C
:1008B0000E94420CAD81BE8154962D913D914D9187
:1008C0005C9157970E94FA0D9B01AC01C801B701DA
:1008D0000E94420C7B018C01ED81FE81D4A8C5A849
:1008E000B6A8A7A82D2D3C2D4B2D5A2D0E94F60DF4
:1008F0001816BCF0AD81BE81D096DC90D097D19611
:10090000CC90D197D296BC90D297D396AC90C80198
:10091000B7012D2D3C2D4B2D5A2D0E94A70C88235D
:1009200034F48D2D9C2DAB2DBA2D7C018D01AD8124
:10093000BE815C96ED91FC915D97E082F18202832D
:100940001383FD0120A631A642A653A689819A8170
:10095000AB81BC8180A391A3A2A3B3A381E001C01A
:1009600080E026960FB6F894DEBF0FBECDBFCF91C4
:10097000DF911F910F91FF90EF90DF90CF90BF908C
:10098000AF909F908F907F906F905F904F903F902F
:100990002F9008954F925F926F927F928F929F92C5
:1009A000AF92BF92CF92DF92EF92FF920F931F937D
:1009B000DF93CF93CDB7DEB74C0127013801EF8825
:1009C000F88CFC01558F448F738F628F378F268F81
:1009D00010AE40E050E060E070E000E010E02FE793
:1009E00033E40E94DC0284E690E0A0E0B0E0F40191
:1009F00084A795A7A6A7B7A780AD882391F1808D7E
:100A0000918DE816F90669F160E070E080E090E011
:100A100024853585468557850E94420CF4016487FC
:100A200075878687978760E070E080E090E0208996
:100A30003189428953890E94420CF401608B718B89
:100A4000828B938B60E070E080E090E024893589B0
:100A5000468957890E94420CF401648B758B868B02
:100A6000978BF401F18EE08EC401B301A2019601CF
:100A70008501CB88DC88ED88FE880E9410020E94E8
:100A80000706F40124A535A546A557A5621B730BDF
:100A9000840B950B60A371A382A393A3CF91DF91E5
:100AA0001F910F91FF90EF90DF90CF90BF90AF908C
:100AB0009F908F907F906F905F904F9008951F93BD
:100AC000CF93DF93182FEB0161E00E94A9062097D6
:100AD00009F44AC0CF3FD10509F449C0E12FF0E045
:100AE000E255FF4F84918330C1F0843028F4813087
:100AF00051F08230B1F50CC0863019F1873049F1E0
:100B0000843079F514C084B5806884BDC7BD33C016
:100B100084B5806284BDC8BD2EC08091800080688D
:100B200080938000D0938900C093880024C0809176
:100B30008000806280938000D0938B00C0938A00F5
:100B40001AC08091B00080688093B000C093B30059
:100B500012C08091B00080628093B000C093B40056
:100B60000AC0C038D1051CF4812F60E002C0812F7B
:100B700061E00E94E806DF91CF911F9108951F92D6
:100B80000F920FB60F9211242F933F938F939F9341
:100B9000AF93BF938091870190918801A0918901C3
:100BA000B0918A0130918B010196A11DB11D232FB7
:100BB0002D5F2D3720F02D570196A11DB11D2093DB
:100BC0008B018093870190938801A0938901B09352
:100BD0008A018091830190918401A0918501B09157
:100BE00086010196A11DB11D80938301909384011C
:100BF000A0938501B0938601BF91AF919F918F9192
:100C00003F912F910F900FBE0F901F9018958FB7A7
:100C1000F894209187013091880140918901509189
:100C20008A018FBFB901CA0108959B01AC017FB74A
:100C3000F8948091830190918401A0918501B091F5
:100C4000860166B5A89B05C06F3F19F00196A11DEE
:100C5000B11D7FBFBA2FA92F982F8827860F911D0E
:100C6000A11DB11D62E0880F991FAA1FBB1F6A95C5
:100C7000D1F7BC012DC0FFB7F8948091830190910A
:100C80008401A0918501B0918601E6B5A89B05C0BD
:100C9000EF3F19F00196A11DB11DFFBFBA2FA92F7B
:100CA000982F88278E0F911DA11DB11DE2E0880F9E
:100CB000991FAA1FBB1FEA95D1F7861B970B885E69
:100CC0009340C8F2215030404040504068517C4F22
:100CD000211531054105510571F60895789484B5C3
:100CE000826084BD84B5816084BD85B5826085BD28
:100CF00085B5816085BDEEE6F0E08081816080830E
:100D0000E1E8F0E0108280818260808380818160F0
:100D10008083E0E8F0E0808181608083E1EBF0E0B7
:100D2000808184608083E0EBF0E08081816080835B
:100D3000EAE7F0E080818460808380818260808344
:100D40008081816080838081806880831092C1006F
:100D50000895CF93DF93482F50E0CA0186569F4FE6
:100D6000FC0134914A575F4FFA018491882369F15D
:100D700090E0880F991FFC01E859FF4FA591B491AD
:100D8000FC01EE58FF4FC591D491662351F42FB763
:100D9000F8948C91932F909589238C938881892343
:100DA0000BC0623061F42FB7F8948C91932F90951B
:100DB00089238C938881832B88832FBF06C09FB79C
:100DC000F8948C91832B8C939FBFDF91CF910895E2
:100DD000482F50E0CA0182559F4FFC012491CA015F
:100DE00086569F4FFC0194914A575F4FFA01349108
:100DF000332309F440C0222351F1233071F0243011
:100E000028F42130A1F0223011F514C02630B1F0C1
:100E10002730C1F02430D9F404C0809180008F774E
:100E200003C0809180008F7D8093800010C084B5C6
:100E30008F7702C084B58F7D84BD09C08091B000DA
:100E40008F7703C08091B0008F7D8093B000E32F37
:100E5000F0E0EE0FFF1FEE58FF4FA591B4912FB7B2
:100E6000F894662321F48C919095892302C08C918B
:100E7000892B8C932FBF0895682F70E0CB0182558A
:100E80009F4FFC012491CB0186569F4FFC0144915A
:100E90006A577F4FFB019491992319F420E030E0C9
:100EA0003CC0222351F1233071F0243028F421304A
:100EB000A1F0223011F514C02630B1F02730C1F076
:100EC0002430D9F404C0809180008F7703C08091D2
:100ED00080008F7D8093800010C084B58F7702C022
:100EE00084B58F7D84BD09C08091B0008F7703C029
:100EF0008091B0008F7D8093B000892F90E0880FA3
:100F0000991F84589F4FFC01A591B4918C9120E0CA
:100F100030E0842311F021E030E0C90108958230EF
:100F200000F5E82FF0E0EE0FFF1FE457FE4F71834E
:100F30006083882319F08130A1F408C08091690092
:100F40008C7F842B80936900E89A089580916900D2
:100F5000440F551F440F551F837F842B80936900D6
:100F6000E99A08951F920F920FB60F9211242F93B2
:100F70003F934F935F936F937F938F939F93AF9321
:100F8000BF93EF93FF9380918C0190918D01892BFA
:100F900029F0E0918C01F0918D010995FF91EF917D
:100FA000BF91AF919F918F917F916F915F914F9181
:100FB0003F912F910F900FBE0F901F9018951F9289
:100FC0000F920FB60F9211242F933F934F935F937D
:100FD0006F937F938F939F93AF93BF93EF93FF9301
:100FE00080918E0190918F01892B29F0E0918E01E3
:100FF000F0918F010995FF91EF91BF91AF919F9172
:101000008F917F916F915F914F913F912F910F90B1
:101010000FBE0F901F901895CF93DF930E946E061E
:101020000E94AB01C7E5D8E00E940A012097E1F3D6
:101030000E945708F9CF08951F920F920FB60F9292
:1010400011242F933F934F938F939F93EF93FF938D
:101050008091C00082FD1DC04091C6002091D0014A
:101060003091D1012F5F3F4F2F7330708091D201AB
:101070009091D3012817390771F0E091D001F091D8
:10108000D101E057FE4F40833093D1012093D0012E
:1010900002C08091C600FF91EF919F918F914F9177
:1010A0003F912F910F900FBE0F901F901895E091D8
:1010B0002402F0912502E05CFF4F81919191208103
:1010C0003181821B930B8F739070892B11F00E94DA
:1010D0001B0808951F920F920FB60F9211242F93A1
:1010E0003F938F939F93EF93FF932091140230913E
:1010F000150280911602909117022817390731F4D2
:101100008091C1008F7D8093C10014C0E0911602D0
:10111000F0911702EC52FE4F2081809116029091BF
:10112000170201968F7390709093170280931602A6
:101130002093C600FF91EF919F918F913F912F9146
:101140000F900FBE0F901F901895AF92BF92DF9235
:10115000EF92FF920F931F93CF93DF93EC017A01ED
:101160008B01DD24403081EE580780E0680780E085
:10117000780711F0DD24D39491E0A92EB12CEC89ED
:10118000FD89DD2069F0C50108A002C0880F991F04
:101190000A94E2F7808360E079E08DE390E005C097
:1011A000108260E874E88EE190E0A80197010E9447
:1011B000800E21503040404050405695479537951D
:1011C000279580E12030380720F0DD2011F0DD2464
:1011D000D6CFE889F9893083EA89FB89208319A26F
:1011E000EE89FF89408121E030E0C9010C8C02C00A
:1011F000880F991F0A94E2F7482B4083EE89FF89F4
:101200004081C9010D8C02C0880F991F0A94E2F732
:10121000482B4083EE89FF894081C9010E8C02C0B2
:10122000880F991F0A94E2F7482B4083EE89FF89C3
:1012300080810F8C02C0220F331F0A94E2F72095A1
:1012400028232083DF91CF911F910F91FF90EF9082
:10125000DF90BF90AF900895DC011C96ED91FC915A
:101260001D97E05CFF4F2191319180819181281B76
:10127000390B2F733070C9010895DC011C96ED9174
:10128000FC911D97E05CFF4F20813181E054F040DC
:10129000DF01AE5BBF4F8D919C91119728173907E5
:1012A00019F42FEF3FEF07C08D919C91E80FF91FC4
:1012B0008081282F30E0C9010895DC011C96ED9152
:1012C000FC911D97E05CFF4F20813181E054F0409C
:1012D000DF01AE5BBF4F8D919C91119728173907A5
:1012E00019F42FEF3FEF10C08D919C911197E80FEB
:1012F000F91F20818D919C91119701968F739070A9
:1013000011969C938E9330E0C9010895DC0191966B
:101310008C919197882339F05496ED91FC915597D3
:10132000808186FFF9CF91961C920895CF93DF9329
:10133000EC01EE85FF85E05CFF4F20813181E054B8
:10134000F0402F5F3F4F2F733070DF01AE5BBF4F18
:101350008D919C91119728173907D1F3E05CFF4FCD
:1013600080819181E054F040E80FF91F6083EE85A1
:10137000FF85E05CFF4F31832083EE89FF89208168
:1013800081E090E00F8C02C0880F991F0A94E2F769
:10139000282B208381E089A3EC89FD8980818064EA
:1013A000808381E090E0DF91CF91089510921B023D
:1013B00010921A0288EE93E0A0E0B0E080931C0245
:1013C00090931D02A0931E02B0931F028AE291E047
:1013D000909319028093180280E991E0909325027E
:1013E0008093240284ED91E090932702809326025B
:1013F00085EC90E0909329028093280284EC90E0A1
:1014000090932B0280932A0280EC90E090932D021F
:1014100080932C0281EC90E090932F0280932E0217
:1014200082EC90E0909331028093300286EC90E061
:10143000909333028093320284E08093340283E0FD
:101440008093350287E08093360285E080933702EF
:1014500081E0809338020895CF92DF92EF92FF925D
:101460000F931F93CF93DF937C016B018A01C0E040
:10147000D0E00FC0D6016D916D01D701ED91FC91C7
:101480000190F081E02DC7010995C80FD91F0150C7
:1014900010400115110571F7CE01DF91CF911F9119
:1014A0000F91FF90EF90DF90CF900895EF92FF9211
:1014B0000F931F938C01DC01ED91FC910190F08161
:1014C000E02D6DE009957C01D801ED91FC91019032
:1014D000F081E02DC8016AE009959C012E0D3F1DA9
:1014E000C9011F910F91FF90EF900895CF93DF9363
:1014F000EC016115710519F420E030E00FC0DB014B
:101500000D900020E9F71197A61BB70BE881F98130
:101510000280F381E02DAD0109959C01C901DF91A5
:10152000CF9108954F925F927F928F929F92AF9248
:10153000BF92CF92DF92EF92FF920F931F93DF93B0
:10154000CF93CDB7DEB7A1970FB6F894DEBF0FBE2D
:10155000CDBF2C01742ECB01223008F42AE019A251
:1015600031E2C32ED12CCC0EDD1E822E9924AA246A
:10157000BB24672D752FA50194010E94800E79016F
:101580008A01C801B701A50194010E94610E472D8F
:10159000461B0894C108D1084A3014F4405D01C0CC
:1015A000495CF6014083E114F1040105110521F0C5
:1015B0007E2C5F2DC801DDCFC201B6010E94760AE4
:1015C000A1960FB6F894DEBF0FBECDBFCF91DF91CD
:1015D0001F910F91FF90EF90DF90CF90BF90AF9051
:1015E0009F908F907F905F904F900895DC01211520
:1015F000310541F4ED91FC910190F081E02D642FD3
:10160000099508950E94920A0895CF92DF92EF9271
:10161000FF920F931F93CF93DF93EC016A017B013D
:101620002115310541F4E881F9810190F081E02D27
:10163000642F09951FC02A303105D1F477FF17C0F8
:10164000E881F9810190F081E02D6DE209958C012E
:1016500044275527BA014C195D096E097F09CE014F
:101660002AE00E94920A9801280F391F04C02AE03C
:101670000E94920A9C01C901DF91CF911F910F91A5
:10168000FF90EF90DF90CF9008950E94760A089522
:101690007F928F929F92AF92BF92CF92DF92EF9202
:1016A000FF920F931F93CF93DF934C017A018B012D
:1016B000722ECB01BA01A80197010E945D0E88230A
:1016C00021F0C40168E171E021C0C0E0D0E0570121
:1016D0006801E894D7F8C601B5012FEF3FEF4FE757
:1016E0005FE70E945D0E882351F4C601B5012FEF1C
:1016F0003FEF4FE75FE70E94A70C181614F0C1E018
:10170000D0E0219739F0C4016CE171E00E94760AC3
:10171000EC0193C0C801B7012FEF3FEF4FE75FE443
:101720000E94F60D181654F0C801B7012FEF3FEFD5
:101730004FE75FEC0E94A70C882324F4C40160E209
:1017400071E0E4CFC801B70120E030E040E050E0B4
:101750000E94A70C87FD03C0C0E0D0E00EC0D401FA
:10176000ED91FC910190F081E02DC4016DE20995AD
:10177000EC0117FB109517F9109520E030E040E0E0
:101780005FE3DD240BC0CA01B90120E030E040E294
:1017900051E40E94AB0C9B01AC01D394D71498F395
:1017A000C801B7010E94430C5B016C010E94180D37
:1017B0007B018C01C401B801A7012AE030E00E943E
:1017C000F60AC80FD91F772039F0C40164E271E02E
:1017D0000E94760AC80FD91FC801B7010E94440DA4
:1017E0009B01AC01C601B5010E94420C24C020E05F
:1017F00030E040E251E40E94FA0D7B018C010E942E
:10180000130D5B016C01CC24B7FCC094DC2CC4012B
:10181000B601A5012AE030E00E94050BC80FD91FD0
:10182000C601B5010E94460D9B01AC01C801B7017C
:101830000E94420C7A947720D1F6CE01DF91CF91AD
:101840001F910F91FF90EF90DF90CF90BF90AF90DE
:101850009F908F907F9008950E94480B0895EF927B
:10186000FF920F931F937C010E94480B8C01C701CC
:101870000E94560A080F191FC8011F910F91FF906F
:10188000EF9008955058BB27AA270ED075C166D196
:1018900030F06BD120F031F49F3F11F41EF45BC1A6
:1018A0000EF4E095E7FB51C1E92F77D180F3BA1729
:1018B000620773078407950718F071F49EF58FC1CE
:1018C0000EF4E0950B2EBA2FA02D0B01B90190015B
:1018D0000C01CA01A0011124FF27591B99F0593F9F
:1018E00050F4503E68F11A16F040A22F232F342FE7
:1018F0004427585FF3CF469537952795A795F04035
:101900005395C9F77EF41F16BA0B620B730B840B49
:10191000BAF09150A1F0FF0FBB1F661F771F881F01
:10192000C2F70EC0BA0F621F731F841F48F4879559
:1019300077956795B795F7959E3F08F0B3CF939548
:10194000880F08F09927EE0F979587950895D9D0BD
:1019500008F481E008950CD00FC107D140F0FED00B
:1019600030F021F45F3F19F0F0C0511139C1F3C0DC
:1019700014D198F39923C9F35523B1F3951B550B53
:10198000BB27AA2762177307840738F09F5F5F4F52
:10199000220F331F441FAA1FA9F333D00E2E3AF093
:1019A000E0E830D091505040E695001CCAF729D0AD
:1019B000FE2F27D0660F771F881FBB1F26173707FC
:1019C0004807AB07B0E809F0BB0B802DBF01FF272C
:1019D00093585F4F2AF09E3F510568F0B6C000C192
:1019E0005F3FECF3983EDCF3869577956795B79566
:1019F000F7959F5FC9F7880F911D9695879597F981
:101A00000895E1E0660F771F881FBB1F62177307F9
:101A10008407BA0720F0621B730B840BBA0BEE1F0E
:101A200088F7E095089504D06894B111D9C008955D
:101A3000BCD088F09F5790F0B92F9927B751A0F0EC
:101A4000D1F0660F771F881F991F1AF0BA95C9F752
:101A500012C0B13081F0C3D0B1E00895C0C0672F8B
:101A6000782F8827B85F39F0B93FCCF38695779502
:101A70006795B395D9F73EF49095809570956195EB
:101A80007F4F8F4F9F4F0895E89409C097FB3EF416
:101A900090958095709561957F4F8F4F9F4F9923BB
:101AA000A9F0F92F96E9BB279395F6958795779539
:101AB0006795B795F111F8CFFAF4BB0F11F460FFF9
:101AC0001BC06F5F7F4F8F4F9F4F16C0882311F051
:101AD00096E911C0772321F09EE8872F762F05C065
:101AE000662371F096E8862F70E060E02AF09A9500
:101AF000660F771F881FDAF7880F9695879597F9F5
:101B00000895990F0008550FAA0BE0E8FEEF16168E
:101B10001706E807F907C0F012161306E407F507E1
:101B200098F0621B730B840B950B39F40A2661F055
:101B3000232B242B252B21F408950A2609F4A140F8
:101B4000A6958FEF811D811D089597F99F6780E805
:101B500070E060E008959FEF80EC089500240A94FF
:101B60001616170618060906089500240A94121678
:101B70001306140605060895092E0394000C11F4AB
:101B8000882352F0BB0F40F4BF2B11F460FF04C058
:101B90006F5F7F4F8F4F9F4F089557FD9058440FB1
:101BA000551F59F05F3F71F04795880F97FB991FBC
:101BB00061F09F3F79F08795089512161306140679
:101BC000551FF2CF4695F1DF08C016161706180606
:101BD000991FF1CF86957105610508940895E894E1
:101BE000BB2766277727CB0197F908958ADF08F48A
:101BF0008FEF08950BD0C0CFB1DF28F0B6DF18F01B
:101C0000952309F0A2CFA7CF1124EACFC6DFA0F316
:101C1000959FD1F3950F50E0551F629FF001729F81
:101C2000BB27F00DB11D639FAA27F00DB11DAA1FA0
:101C3000649F6627B00DA11D661F829F2227B00DED
:101C4000A11D621F739FB00DA11D621F839FA00D78
:101C5000611D221F749F3327A00D611D231F849FC8
:101C6000600D211D822F762F6A2F11249F5750401F
:101C70008AF0E1F088234AF0EE0FFF1FBB1F661FBA
:101C8000771F881F91505040A9F79E3F510570F073
:101C90005CCFA6CF5F3FECF3983EDCF3869577955B
:101CA0006795B795F795E7959F5FC1F7FE2B880F6E
:101CB000911D9695879597F9089523DF880B990BC9
:101CC0000895629FD001739FF001829FE00DF11D86
:101CD000649FE00DF11D929FF00D839FF00D749FA6
:101CE000F00D659FF00D9927729FB00DE11DF91F52
:101CF000639FB00DE11DF91FBD01CF0111240895AF
:101D0000A1E21A2EAA1BBB1BFD010DC0AA1FBB1FFF
:101D1000EE1FFF1FA217B307E407F50720F0A21B71
:101D2000B30BE40BF50B661F771F881F991F1A94DE
:101D300069F760957095809590959B01AC01BD0108
:101D4000CF010895EE0FFF1F0590F491E02D099447
:041D5000F894FFCF35
:101D54002020202020202020004C6566743A20009A
:101D640052696768743A20006E616E00696E66009D
:101D74006F7666002E000000000096092C0A2C09DC
:061D84005D093D0986091E
:00000001FF
