:100000000C9462000C948A000C948A000C948A0070
:100010000C948A000C948A000C948A000C948A0038
:100020000C948A000C948A000C948A000C948A0028
:100030000C948A000C948A000C948A000C948A0018
:100040000C94C9040C948A000C948F020C94DD0269
:100050000C948A000C948A000C948A000C948A00F8
:100060000C948A000C948A000000000024002700F1
:100070002A0000000000250028002B0000000000DE
:1000800023002600290004040404040404040202DA
:100090000202020203030303030301020408102007
:1000A0004080010204081020010204081020000012
:1000B0000007000201000003040600000000000029
:1000C0000000490411241FBECFEFD8E0DEBFCDBF32
:1000D00011E0A0E0B1E0ECEEFAE002C005900D9274
:1000E000A231B107D9F711E0A2E1B1E001C01D9240
:1000F000A63CB107E1F710E0C4ECD0E004C02297C1
:10010000FE010E947005C23CD107C9F70E947F0220
:100110000C9474050C940000DF92EF92FF920F9301
:100120001F93CF93DF9313B11170209112012E7F93
:10013000212B2093120183B190E0827090709595ED
:100140008795082F0170802F880F2D7F282B2093F3
:10015000120183B190E08470907095958795959584
:100160008795FF24F394F8228F2D880F880F2B7F1B
:10017000282B2093120183B190E08870907043E0A7
:10018000959587954A95E1F7EE24E394E8228E2D24
:10019000880F880F880F277F282B2093120183B1A7
:1001A00090E08071907034E0959587953A95E1F7ED
:1001B000DD24D394D8228D2D8295807F2F7E282B0D
:1001C00020931201612F70E0402F50E0EF2DF0E0FE
:1001D000AE2DB0E0CD2DD0E0CA018E2B9F2B862B0B
:1001E000972B8A2B9B2B8C2B9D2B892B09F42D9ADB
:1001F000CA018E239F2320E030E0112311F421E077
:1002000030E0822393238A239B238C239D23892BF5
:1002100031F08BB18B7D8BB98BB180698BB9CF01FC
:100220008A239B23862397238C239D2320E030E081
:10023000002311F421E030E082239323892B21F065
:100240008BB18B758BB95C9A642375239E012A232D
:100250003B2340E050E0FF2011F441E050E0242334
:10026000352326233723232B31F08BB18B778BB9A2
:100270008BB180638BB9AB014E235F2320E030E06C
:10028000EE2011F421E030E02C233D2324233523FC
:10029000232B21F08BB18B768BB95D9A4A235B239C
:1002A00020E030E0DD2011F421E030E0242335238C
:1002B000232B31F08BB18F768BB98BB184628BB9E4
:1002C0004C235D23452B21F08BB18B748BB92D987A
:1002D000DF91CF911F910F91FF90EF90DF900895E4
:1002E0008BE991E040E855E260E070E00E9418037D
:1002F0008CEF8AB91BB86091010186E070E00E9422
:100300008C016091000183E070E00E948C018BB150
:100310008B748BB92D9808951F93CF93DF93182F6B
:10032000EB0161E00E94EC01209709F44AC0CF3F45
:10033000D10509F449C0E12FF0E0E255FF4F849167
:100340008330C1F0843028F4813051F08230B1F52F
:100350000CC0863019F1873049F1843079F514C02A
:1003600084B5806884BDC7BD33C084B5806284BD58
:10037000C8BD2EC080918000806880938000D0939B
:100380008900C093880024C080918000806280939F
:100390008000D0938B00C0938A001AC08091B00077
:1003A00080688093B000C093B30012C08091B00009
:1003B00080628093B000C093B4000AC0C038D105F9
:1003C0001CF4812F60E002C0812F61E00E942B02AB
:1003D000DF91CF911F910895CF93DF93482F50E085
:1003E000CA0186569F4FFC0134914A575F4FFA016C
:1003F0008491882369F190E0880F991FFC01E859E6
:10040000FF4FA591B491FC01EE58FF4FC591D491D7
:10041000662351F42FB7F8948C91932F90958923EC
:100420008C93888189230BC0623061F42FB7F894D4
:100430008C91932F909589238C938881832B88832B
:100440002FBF06C09FB7F8948C91832B8C939FBFCE
:10045000DF91CF910895482F50E0CA0182559F4FF8
:10046000FC012491CA0186569F4FFC0194914A5782
:100470005F4FFA013491332309F440C0222351F134
:10048000233071F0243028F42130A1F0223011F50E
:1004900014C02630B1F02730C1F02430D9F404C0A4
:1004A000809180008F7703C0809180008F7D809342
:1004B000800010C084B58F7702C084B58F7D84BD65
:1004C00009C08091B0008F7703C08091B0008F7D0C
:1004D0008093B000E32FF0E0EE0FFF1FEE58FF4FC8
:1004E000A591B4912FB7F894662321F48C9190953F
:1004F000892302C08C91892B8C932FBF0895CF93B1
:10050000DF930E9411050E947001CAECD2E00E94A4
:100510008C002097E1F30E94CA02F9CF08951F9240
:100520000F920FB60F9211242F933F934F938F93F7
:100530009F93EF93FF938091C00082FD1DC0409177
:10054000C60020915301309154012F5F3F4F2F730C
:10055000307080915501909156012817390771F03C
:10056000E0915301F0915401ED5EFE4F40833093D2
:1005700054012093530102C08091C600FF91EF9176
:100580009F918F914F913F912F910F900FBE0F90A0
:100590001F901895E091A701F091A801E05CFF4F32
:1005A0008191919120813181821B930B8F73907087
:1005B000892B11F00E948E0208951F920F920FB6A0
:1005C0000F9211242F933F938F939F93EF93FF9359
:1005D00020919701309198018091990190919A0111
:1005E0002817390731F48091C1008F7D8093C100B5
:1005F00014C0E0919901F0919A01E95AFE4F2081CF
:100600008091990190919A0101968F7390709093C7
:100610009A01809399012093C600FF91EF919F91D9
:100620008F913F912F910F900FBE0F901F901895B3
:10063000AF92BF92DF92EF92FF920F931F93CF93EF
:10064000DF93EC017A018B01DD24403081EE580705
:1006500080E0680780E0780711F0DD24D39491E012
:10066000A92EB12CEC89FD89DD2069F0C50108A017
:1006700002C0880F991F0A94E2F7808360E079E056
:100680008DE390E005C0108260E874E88EE190E0B0
:10069000A80197010E944C05215030404040504035
:1006A000569547953795279580E12030380720F0FB
:1006B000DD2011F0DD24D6CFE889F9893083EA897D
:1006C000FB89208319A2EE89FF89408121E030E077
:1006D000C9010C8C02C0880F991F0A94E2F7482BBD
:1006E0004083EE89FF894081C9010D8C02C0880FCB
:1006F000991F0A94E2F7482B4083EE89FF894081D5
:10070000C9010E8C02C0880F991F0A94E2F7482B8A
:100710004083EE89FF8980810F8C02C0220F331F36
:100720000A94E2F7209528232083DF91CF911F912F
:100730000F91FF90EF90DF90BF90AF900895DC0194
:100740001C96ED91FC911D97E05CFF4F219131913A
:1007500080819181281B390B2F733070C901089556
:10076000DC011C96ED91FC911D97E05CFF4F208110
:100770003181E054F040DF01AE5BBF4F8D919C9121
:1007800011972817390719F42FEF3FEF07C08D9104
:100790009C91E80FF91F8081282F30E0C90108954E
:1007A000DC011C96ED91FC911D97E05CFF4F2081D0
:1007B0003181E054F040DF01AE5BBF4F8D919C91E1
:1007C00011972817390719F42FEF3FEF10C08D91BB
:1007D0009C911197E80FF91F20818D919C911197A1
:1007E00001968F73907011969C938E9330E0C9019F
:1007F0000895DC0191968C919197882339F0549655
:10080000ED91FC915597808186FFF9CF91961C92CE
:100810000895CF93DF93EC01EE85FF85E05CFF4FF9
:1008200020813181E054F0402F5F3F4F2F733070B3
:10083000DF01AE5BBF4F8D919C911197281739074F
:10084000D1F3E05CFF4F80819181E054F040E80FEC
:10085000F91F6083EE85FF85E05CFF4F31832083C5
:10086000EE89FF89208181E090E00F8C02C0880F23
:10087000991F0A94E2F7282B208381E089A3EC8951
:10088000FD8980818064808381E090E0DF91CF9159
:10089000089510929E0110929D0188EE93E0A0E0D1
:1008A000B0E080939F019093A001A093A101B09329
:1008B000A20186E091E090939C0180939B0183E1EB
:1008C00091E09093A8018093A70187E591E0909330
:1008D000AA018093A90185EC90E09093AC018093EC
:1008E000AB0184EC90E09093AE018093AD0180EC7D
:1008F00090E09093B0018093AF0181EC90E09093F1
:10090000B2018093B10182EC90E09093B4018093A6
:10091000B30186EC90E09093B6018093B50184E03A
:100920008093B70183E08093B80187E08093B90199
:1009300085E08093BA0181E08093BB010895CF9256
:10094000DF92EF92FF920F931F93CF93DF937C017F
:100950006B018A01C0E0D0E00FC0D6016D916D013E
:10096000D701ED91FC910190F081E02DC70109952F
:10097000C80FD91F015010400115110571F7CE01A4
:10098000DF91CF911F910F91FF90EF90DF90CF906B
:1009900008951F920F920FB60F9211242F933F9339
:1009A0008F939F93AF93BF938091C1019091C201A8
:1009B000A091C301B091C4013091C5010196A11D60
:1009C000B11D232F2D5F2D3720F02D570196A11D2E
:1009D000B11D2093C5018093C1019093C201A093E2
:1009E000C301B093C4018091BD019091BE01A0915B
:1009F000BF01B091C0010196A11DB11D8093BD0141
:100A00009093BE01A093BF01B093C001BF91AF917D
:100A10009F918F913F912F910F900FBE0F901F903C
:100A20001895789484B5826084BD84B5816084BD56
:100A300085B5826085BD85B5816085BDEEE6F0E057
:100A4000808181608083E1E8F0E0108280818260B3
:100A50008083808181608083E0E8F0E08081816034
:100A60008083E1EBF0E0808184608083E0EBF0E064
:100A7000808181608083EAE7F0E080818460808308
:100A800080818260808380818160808380818068B2
:100A900080831092C1000895A1E21A2EAA1BBB1BED
:100AA000FD010DC0AA1FBB1FEE1FFF1FA217B3073A
:100AB000E407F50720F0A21BB30BE40BF50B661F50
:100AC000771F881F991F1A9469F760957095809514
:100AD00090959B01AC01BD01CF010895EE0FFF1F62
:0C0AE0000590F491E02D0994F894FFCFEC
:100AEC006E460000000009049F049F03D003B0036E
:020AFC00F903FC
:00000001FF
