:100000000C9461000C947E000C947E000C947E0095
:100010000C947E000C947E000C947E000C947E0068
:100020000C947E000C947E000C947E000C947E0058
:100030000C947E000C947E000C947E000C947E0048
:100040000C943D010C947E000C947E000C947E0078
:100050000C947E000C947E000C947E000C947E0028
:100060000C947E000C947E00000000002400270009
:100070002A0000000000250028002B0000000000DE
:1000800023002600290004040404040404040202DA
:100090000202020203030303030301020408102007
:1000A0004080010204081020010204081020000012
:1000B0000007000201000003040600000000000029
:1000C000000011241FBECFEFD8E0DEBFCDBF11E08E
:1000D000A0E0B1E0E4E8F3E002C005900D92A430A6
:1000E000B107D9F711E0A4E0B1E001C01D92AD3035
:1000F000B107E1F70E942E010C94C0010C9400009E
:100100008CE00E94DB00E0910001F0910101892B5D
:1001100019F480818F7D02C0808180628083089580
:10012000E0910201F09103018081806280838CE084
:1001300060E00E949C000895CF93DF93482F50E029
:10014000CA0186569F4FFC0134914A575F4FFA010E
:100150008491882369F190E0880F991FFC01E85988
:10016000FF4FA591B491FC01EE58FF4FC591D4917A
:10017000662351F42FB7F8948C91932F909589238F
:100180008C93888189230BC0623061F42FB7F89477
:100190008C91932F909589238C938881832B8883CE
:1001A0002FBF06C09FB7F8948C91832B8C939FBF71
:1001B000DF91CF910895682F70E0CB0182559F4F5A
:1001C000FC012491CB0186569F4FFC0144916A5754
:1001D0007F4FFB019491992319F420E030E03CC05B
:1001E000222351F1233071F0243028F42130A1F082
:1001F000223011F514C02630B1F02730C1F0243080
:10020000D9F404C0809180008F7703C08091800072
:100210008F7D8093800010C084B58F7702C084B535
:100220008F7D84BD09C08091B0008F7703C080911D
:10023000B0008F7D8093B000892F90E0880F991FC8
:1002400084589F4FFC01A591B4918C9120E030E03F
:10025000842311F021E030E0C9010895CF93DF93AA
:100260000E9485010E949000C0E0D0E00E948000C2
:100270002097E1F30E940000F9CF1F920F920FB672
:100280000F9211242F933F938F939F93AF93BF931C
:100290008091080190910901A0910A01B0910B0190
:1002A00030910C010196A11DB11D232F2D5F2D371B
:1002B00020F02D570196A11DB11D20930C018093B4
:1002C000080190930901A0930A01B0930B0180915A
:1002D000040190910501A0910601B09107010196DA
:1002E000A11DB11D8093040190930501A093060107
:1002F000B0930701BF91AF919F918F913F912F9143
:100300000F900FBE0F901F901895789484B582605F
:1003100084BD84B5816084BD85B5826085BD85B5A9
:10032000816085BDEEE6F0E0808181608083E1E858
:10033000F0E0108280818260808380818160808390
:10034000E0E8F0E0808181608083E1EBF0E0808193
:1003500084608083E0EBF0E0808181608083EAE765
:10036000F0E08081846080838081826080838081EE
:10037000816080838081806880831092C1000895AD
:04038000F894FFCF1F
:04038400250024002C
:00000001FF
