:100000000C9462000C948A000C948A000C948A0070
:100010000C948A000C948A000C948A000C948A0038
:100020000C948A000C948A000C948A000C948A0028
:100030000C948A000C948A000C948A000C948A0018
:100040000C94AF020C948A000C942E040C947C0443
:100050000C948A000C948A000C948A000C948A00F8
:100060000C948A000C948A000000000024002700F1
:100070002A0000000000250028002B0000000000DE
:1000800023002600290004040404040404040202DA
:100090000202020203030303030301020408102007
:1000A0004080010204081020010204081020000012
:1000B0000007000201000003040600000000000029
:1000C0000000E80511241FBECFEFD8E0DEBFCDBF92
:1000D00011E0A0E0B1E0E4E2FDE002C005900D9285
:1000E000A231B107D9F711E0A2E1B1E001C01D9240
:1000F000A83CB107E1F710E0C4ECD0E004C02297BF
:10010000FE010E948C06C23CD107C9F70E941E0462
:100110000C9490060C9400008BB18B748BB962E345
:1001200070E080E090E00E94F70208958091140151
:100130008F7B8093140186EA91E040E855E260E00D
:1001400070E00E94B7048CEF8AB91BB8259A2D98ED
:1001500040986091010186E070E00E944F0260913A
:10016000000183E070E00E944F020E948C0008951D
:100170000E948C0086B18170282F2295220F207E4C
:10018000909114019F7D922B90931401282F30E0C1
:1001900040E050E096FD02C041E050E024233523CA
:1001A000232BD1F02D9A8BB18F7C8BB98BB18468C6
:1001B0008BB9109213011092120160EB74E080E091
:1001C00090E00E94F7022D980E948C0064E670E097
:1001D00080E090E00E94F70286B18170282F22957E
:1001E000220F207E909114019F7D922B90931401F9
:1001F000282F30E040E050E096FD02C041E050E0A2
:1002000024233523232B31F02D9A8091140180640F
:10021000809314018091140186FF14C08BB18B7DF3
:100220008BB98BB180698BB96CE474E080E090E0AD
:100230000E94F7020E948C0064E670E080E090E08B
:100240000E94F7020895CF92DF92EF92FF920F93F0
:100250001F93CF93DF9373B17170209114012E7FA0
:10026000272B2093140183B190E0827090709595B4
:100270008795B82FB1708B2F880F2D7F282B209357
:10028000140183B190E08470907095958795959551
:100290008795A82FA1708A2F880F880F2B7F282B76
:1002A0002093140183B190E08870907053E095958D
:1002B00087955A95E1F7F82FF1708F2F880F880FE7
:1002C000880F277F282B2093140183B190E0807141
:1002D000907044E0959587954A95E1F7E82FE17095
:1002E0008E2F8295807F2F7E282B2093140166B15C
:1002F0006170862F8295880F807E2F7D282B20931A
:100300001401862F90E040E050E026FD02C041E05D
:1003100050E084239523892B19F00E94B800B6C0C1
:1003200020E030E0662311F421E030E0872F90E0F8
:10033000282339238B2F90E0282339238A2F90E01C
:10034000282339238F2F90E0282339238E2F90E004
:1003500028233923232B11F00E948C008091140153
:10036000282F2170182F16951170C12EDD24082F0B
:10037000069506950170C02FD0E0F82EF694F694FD
:10038000F69491E0F922AF2DB0E0E82EE2943FE040
:10039000E322E9226E2D70E040E050E085FD02C0CE
:1003A00041E050E080E090E0222311F481E090E011
:1003B0008C219D218C239D238A239B238623972395
:1003C00084239523892B31F08BB18B7D8BB98BB135
:1003D00080698BB9E22FF0E0CD018C239D23862329
:1003E0009723842395238E239F2320E030E011233D
:1003F00011F421E030E082239323892B21F08BB18B
:100400008B758BB95C9AEC21FD21CB018A239B2350
:100410008423952320E030E0002311F421E030E034
:10042000822393238E239F23892B31F08BB18B77EB
:100430008BB98BB180638BB9EC23FD23CA01862372
:10044000972320E030E0FF2011F421E030E0822308
:1004500093238E239F23892B21F08BB18B768BB92D
:100460005D9ACA018A239B2320E030E0EE2011F43C
:1004700021E030E0822393238E239F23892B31F0C8
:100480008BB18F768BB98BB184628BB9DF91CF91B1
:100490001F910F91FF90EF90DF90CF9008951F93E1
:1004A000CF93DF93182FEB0161E00E948B0320971D
:1004B00009F44AC0CF3FD10509F449C0E12FF0E06B
:1004C000E255FF4F84918330C1F0843028F48130AD
:1004D00051F08230B1F50CC0863019F1873049F106
:1004E000843079F514C084B5806884BDC7BD33C03D
:1004F00084B5806284BDC8BD2EC0809180008068B4
:1005000080938000D0938900C093880024C080919C
:100510008000806280938000D0938B00C0938A001B
:100520001AC08091B00080688093B000C093B3007F
:1005300012C08091B00080628093B000C093B4007C
:100540000AC0C038D1051CF4812F60E002C0812FA1
:1005500061E00E94CA03DF91CF911F9108951F921D
:100560000F920FB60F9211242F933F938F939F9367
:10057000AF93BF938091190190911A01A0911B0133
:10058000B0911C0130911D010196A11DB11D232FB9
:100590002D5F2D3720F02D570196A11DB11D209301
:1005A0001D018093190190931A01A0931B01B09330
:1005B0001C018091150190911601A0911701B09135
:1005C00018010196A11DB11D80931501909316018C
:1005D000A0931701B0931801BF91AF919F918F9194
:1005E0003F912F910F900FBE0F901F9018959B0178
:1005F000AC017FB7F8948091150190911601A091FC
:100600001701B091180166B5A89B05C06F3F19F09E
:100610000196A11DB11D7FBFBA2FA92F982F882742
:10062000860F911DA11DB11D62E0880F991FAA1FA1
:10063000BB1F6A95D1F7BC012DC0FFB7F89480911C
:10064000150190911601A0911701B0911801E6B51E
:10065000A89B05C0EF3F19F00196A11DB11DFFBF7A
:10066000BA2FA92F982F88278E0F911DA11DB11D7C
:10067000E2E0880F991FAA1FBB1FEA95D1F7861BDE
:10068000970B885E9340C8F2215030404040504064
:1006900068517C4F211531054105510571F60895CA
:1006A000789484B5826084BD84B5816084BD85B54D
:1006B000826085BD85B5816085BDEEE6F0E0808114
:1006C00081608083E1E8F0E0108280818260808335
:1006D000808181608083E0E8F0E0808181608083B8
:1006E000E1EBF0E0808184608083E0EBF0E08081EA
:1006F00081608083EAE7F0E080818460808380818C
:100700008260808380818160808380818068808333
:100710001092C1000895CF93DF93482F50E0CA0193
:1007200086569F4FFC0134914A575F4FFA018491DE
:10073000882369F190E0880F991FFC01E859FF4F69
:10074000A591B491FC01EE58FF4FC591D491662359
:1007500051F42FB7F8948C91932F909589238C9313
:10076000888189230BC0623061F42FB7F8948C9193
:10077000932F909589238C938881832B88832FBF17
:1007800006C09FB7F8948C91832B8C939FBFDF9109
:10079000CF910895482F50E0CA0182559F4FFC0128
:1007A0002491CA0186569F4FFC0194914A575F4F8E
:1007B000FA013491332309F440C0222351F123304C
:1007C00071F0243028F42130A1F0223011F514C04A
:1007D0002630B1F02730C1F02430D9F404C0809124
:1007E00080008F7703C0809180008F7D8093800090
:1007F00010C084B58F7702C084B58F7D84BD09C0D9
:100800008091B0008F7703C08091B0008F7D80937E
:10081000B000E32FF0E0EE0FFF1FEE58FF4FA59161
:10082000B4912FB7F894662321F48C919095892385
:1008300002C08C91892B8C932FBF0895CF93DF93A7
:100840000E9450030E949600C9E6D4E00E94230152
:100850002097E1F30E946904F9CF08951F920F9247
:100860000FB60F9211242F933F934F938F939F9323
:10087000EF93FF938091C00082FD1DC04091C600A0
:1008800020915E0130915F012F5F3F4F2F733070D9
:1008900080916001909161012817390771F0E09112
:1008A0005E01F0915F01E25EFE4F408330935F0195
:1008B00020935E0102C08091C600FF91EF919F914D
:1008C0008F914F913F912F910F900FBE0F901F90DE
:1008D0001895E091B201F091B301E05CFF4F819176
:1008E000919120813181821B930B8F739070892BA2
:1008F00011F00E942D0408951F920F920FB60F92CF
:1009000011242F933F938F939F93EF93FF93209105
:10091000A2013091A3018091A4019091A501281713
:10092000390731F48091C1008F7D8093C10014C0DC
:10093000E091A401F091A501EE59FE4F2081809134
:10094000A4019091A50101968F7390709093A501D9
:100950008093A4012093C600FF91EF919F918F9106
:100960003F912F910F900FBE0F901F901895AF924F
:10097000BF92DF92EF92FF920F931F93CF93DF937B
:10098000EC017A018B01DD24403081EE580780E0D4
:10099000680780E0780711F0DD24D39491E0A92E58
:1009A000B12CEC89FD89DD2069F0C50108A002C0E9
:1009B000880F991F0A94E2F7808360E079E08DE365
:1009C00090E005C0108260E874E88EE190E0A80134
:1009D00097010E9468062150304040405040569593
:1009E00047953795279580E12030380720F0DD20A6
:1009F00011F0DD24D6CFE889F9893083EA89FB89B3
:100A0000208319A2EE89FF89408121E030E0C901ED
:100A10000C8C02C0880F991F0A94E2F7482B408380
:100A2000EE89FF894081C9010D8C02C0880F991F92
:100A30000A94E2F7482B4083EE89FF894081C9017F
:100A40000E8C02C0880F991F0A94E2F7482B40834E
:100A5000EE89FF8980810F8C02C0220F331F0A9418
:100A6000E2F7209528232083DF91CF911F910F91EA
:100A7000FF90EF90DF90BF90AF900895DC011C963F
:100A8000ED91FC911D97E05CFF4F219131918081A8
:100A90009181281B390B2F733070C9010895DC0137
:100AA0001C96ED91FC911D97E05CFF4F20813181F8
:100AB000E054F040DF01AE5BBF4F8D919C911197E8
:100AC0002817390719F42FEF3FEF07C08D919C913C
:100AD000E80FF91F8081282F30E0C9010895DC015B
:100AE0001C96ED91FC911D97E05CFF4F20813181B8
:100AF000E054F040DF01AE5BBF4F8D919C911197A8
:100B00002817390719F42FEF3FEF10C08D919C91F2
:100B10001197E80FF91F20818D919C9111970196F3
:100B20008F73907011969C938E9330E0C901089555
:100B3000DC0191968C919197882339F05496ED9130
:100B4000FC915597808186FFF9CF91961C9208956C
:100B5000CF93DF93EC01EE85FF85E05CFF4F2081B2
:100B60003181E054F0402F5F3F4F2F733070DF0131
:100B7000AE5BBF4F8D919C91119728173907D1F328
:100B8000E05CFF4F80819181E054F040E80FF91F55
:100B90006083EE85FF85E05CFF4F31832083EE8923
:100BA000FF89208181E090E00F8C02C0880F991F9F
:100BB0000A94E2F7282B208381E089A3EC89FD8940
:100BC00080818064808381E090E0DF91CF910895FF
:100BD0001092A9011092A80188EE93E0A0E0B0E085
:100BE0008093AA019093AB01A093AC01B093AD01A7
:100BF00086E091E09093A7018093A6018EE191E0B9
:100C00009093B3018093B20182E691E09093B50195
:100C10008093B40185EC90E09093B7018093B60186
:100C200084EC90E09093B9018093B80180EC90E05F
:100C30009093BB018093BA0181EC90E09093BD0149
:100C40008093BC0182EC90E09093BF018093BE0141
:100C500086EC90E09093C1018093C00184E0809382
:100C6000C20183E08093C30187E08093C40185E0E3
:100C70008093C50181E08093C6010895CF92DF92F1
:100C8000EF92FF920F931F93CF93DF937C016B0141
:100C90008A01C0E0D0E00FC0D6016D916D01D7018F
:100CA000ED91FC910190F081E02DC7010995C80FED
:100CB000D91F015010400115110571F7CE01DF91C8
:100CC000CF911F910F91FF90EF90DF90CF900895FB
:100CD000A1E21A2EAA1BBB1BFD010DC0AA1FBB1F40
:100CE000EE1FFF1FA217B307E407F50720F0A21BB2
:100CF000B30BE40BF50B661F771F881F991F1A941F
:100D000069F760957095809590959B01AC01BD0148
:100D1000CF010895EE0FFF1F0590F491E02D099487
:040D2000F894FFCF75
:100D24006E4600000000A8053E063E056F054F050F
:020D3400980520
:00000001FF
