:100000000C9461000C947E000C947E000C947E0095
:100010000C947E000C947E000C947E000C947E0068
:100020000C947E000C947E000C947E000C947E0058
:100030000C947E000C947E000C947E000C947E0048
:100040000C9452020C947E000C947E000C947E0062
:100050000C947E000C947E000C947E000C947E0028
:100060000C947E000C947E00000000002400270009
:100070002A0000000000250028002B0000000000DE
:1000800023002600290004040404040404040202DA
:100090000202020203030303030301020408102007
:1000A0004080010204081020010204081020000012
:1000B0000007000201000003040600000000000029
:1000C000000011241FBECFEFD8E0DEBFCDBF11E08E
:1000D000A0E0B1E0E4EAF7E002C005900D92A230A2
:1000E000B107D9F711E0A2E0B1E001C01D92AE3036
:1000F000B107E1F70E94C1030C94D0030C940000F7
:100100008BB18B748BB962E370E080E090E00E9469
:100110009A020895809104018F7B809304018CEFF3
:100120008AB91BB8259A2D9840986091010186E004
:1001300070E00E94F2016091000183E070E00E9493
:10014000F2010E948000089520E030E080910401D7
:1001500086FD02C021E030E0809104018295869501
:10016000817090E028233923232B09F444C00E9496
:10017000800096B191709295990F907E80910401C4
:100180008F7D892B809304012D9A8BB18F7C8BB945
:100190008BB184688BB9109203011092020160E266
:1001A00073E080E090E00E949A022D980E94800007
:1001B00086B18170982F9295990F907E20910401BD
:1001C0002F7D292B209304018823A9F02D9A2064E8
:1001D000209304018BB18B7D8BB98BB180698BB976
:1001E00064E175E080E090E00E949A020E94800045
:1001F0008BB18B7D8BB90895AF92BF92DF92EF9256
:10020000FF920F931F93CF93DF93E3B1E17080913F
:1002100004018E7F8E2B8093040173B176957170EB
:10022000972F990F8D7F892B80930401E3B0E6947B
:10023000E69491E0E9229E2D990F990F8B7F892BEF
:1002400080930401F3B0F694F694F69491E0F922C9
:100250009F2D990F990F990F877F892B8093040108
:10026000D3B0D2949FE0D92291E0D9229D2D9295CE
:10027000907F8F7E892B8093040166B16170962FE9
:100280009295990F907E8F7D892B809304018295A2
:10029000869586958170262F30E040E050E011F47D
:1002A00041E050E024233523232B19F00E94A400C1
:1002B0008FC020E030E0662311F421E030E090E0D0
:1002C00028233923232B39F02D98809104018F7B2B
:1002D000809304017DC0AE2CBB24CF2DD0E0AD2D8A
:1002E000B0E0C5018C239D2320E030E0EE2311F423
:1002F00021E030E0822393238A239B23892B31F052
:100300008BB18B7D8BB98BB180693CC02E2F30E0D7
:1003100080E090E0772311F481E090E08C010223EB
:100320001323FD01EC23FD23CF0180239123892B8F
:1003300029F08BB18B758BB95C9A4AC0672F70E03E
:100340006223732320E030E0EE2011F421E030E05E
:1003500040E050E0FF2011F441E050E0CA01822368
:100360009323802391232C233D2326233723822B81
:10037000932B8A239B23892B39F08BB18B778BB9F5
:100380008BB180638BB924C04A235B234623572358
:10039000452B29F08BB18B768BB95D9A19C0CB01B7
:1003A0008A219B2120E030E0DD2011F421E030E0C3
:1003B00028233923232B31F08BB18F768BB98BB166
:1003C0008462E0CFE823F923EF2B11F00E94800034
:1003D000DF91CF911F910F91FF90EF90DF90BF9031
:1003E000AF9008951F93CF93DF93182FEB0161E037
:1003F0000E942E03209709F44AC0CF3FD10509F48B
:1004000049C0E12FF0E0E255FF4F84918330C1F005
:10041000843028F4813051F08230B1F50CC0863040
:1004200019F1873049F1843079F514C084B58068BA
:1004300084BDC7BD33C084B5806284BDC8BD2EC035
:1004400080918000806880938000D0938900C09361
:10045000880024C080918000806280938000D093C7
:100460008B00C0938A001AC08091B000806880938E
:10047000B000C093B30012C08091B000806280933E
:10048000B000C093B4000AC0C038D1051CF4812F5D
:1004900060E002C0812F61E00E946D03DF91CF9187
:1004A0001F9108951F920F920FB60F9211242F9350
:1004B0003F938F939F93AF93BF9380910901909146
:1004C0000A01A0910B01B0910C0130910D01019630
:1004D000A11DB11D232F2D5F2D3720F02D57019623
:1004E000A11DB11D20930D018093090190930A0174
:1004F000A0930B01B0930C0180910501909106012E
:10050000A0910701B09108010196A11DB11D809332
:10051000050190930601A0930701B0930801BF91D4
:10052000AF919F918F913F912F910F900FBE0F90A0
:100530001F9018959B01AC017FB7F894809105013D
:1005400090910601A0910701B091080166B5A89BA2
:1005500005C06F3F19F00196A11DB11D7FBFBA2FD5
:10056000A92F982F8827860F911DA11DB11D62E02C
:10057000880F991FAA1FBB1F6A95D1F7BC012DC018
:10058000FFB7F8948091050190910601A0910701B1
:10059000B0910801E6B5A89B05C0EF3F19F00196A0
:1005A000A11DB11DFFBFBA2FA92F982F88278E0F2D
:1005B000911DA11DB11DE2E0880F991FAA1FBB1F4D
:1005C000EA95D1F7861B970B885E9340C8F22150BD
:1005D00030404040504068517C4F21153105410565
:1005E000510571F60895789484B5826084BD84B510
:1005F000816084BD85B5826085BD85B5816085BD1E
:10060000EEE6F0E0808181608083E1E8F0E0108236
:10061000808182608083808181608083E0E8F0E077
:10062000808181608083E1EBF0E080818460808361
:10063000E0EBF0E0808181608083EAE7F0E0808198
:1006400084608083808182608083808181608083F8
:100650008081806880831092C1000895CF93DF93DA
:10066000482F50E0CA0186569F4FFC0134914A57EB
:100670005F4FFA018491882369F190E0880F991FF8
:10068000FC01E859FF4FA591B491FC01EE58FF4FD2
:10069000C591D491662351F42FB7F8948C91932F80
:1006A000909589238C93888189230BC0623061F4F3
:1006B0002FB7F8948C91932F909589238C938881F0
:1006C000832B88832FBF06C09FB7F8948C91832B10
:1006D0008C939FBFDF91CF910895482F50E0CA01BE
:1006E00082559F4FFC012491CA0186569F4FFC0101
:1006F00094914A575F4FFA013491332309F440C073
:10070000222351F1233071F0243028F42130A1F05C
:10071000223011F514C02630B1F02730C1F024305A
:10072000D9F404C0809180008F7703C0809180004D
:100730008F7D8093800010C084B58F7702C084B510
:100740008F7D84BD09C08091B0008F7703C08091F8
:10075000B0008F7D8093B000E32FF0E0EE0FFF1F1D
:10076000EE58FF4FA591B4912FB7F894662321F46A
:100770008C919095892302C08C91892B8C932FBFEB
:100780000895CF93DF930E94F3020E948A00C0E095
:10079000D0E00E94FC002097E1F30E940000F9CF16
:0407A000F894FFCFFB
:0207A4006E469F
:00000001FF
