:100000000C9461000C9423030C9450030C947E0018
:100010000C947E000C947E000C947E000C947E0068
:100020000C947E000C947E000C947E000C947E0058
:100030000C947E000C947E000C947E000C947E0048
:100040000C943E010C947E000C947E000C947E0077
:100050000C947E000C947E000C947E000C947E0028
:100060000C947E000C947E00000000002400270009
:100070002A0000000000250028002B0000000000DE
:1000800023002600290004040404040404040202DA
:100090000202020203030303030301020408102007
:1000A0004080010204081020010204081020000012
:1000B0000007000201000003040600000000000029
:1000C000000011241FBECFEFD8E0DEBFCDBF11E08E
:1000D000A0E0B1E0ECE1F7E002C005900D92A030A5
:1000E000B107D9F711E0A0E0B1E001C01D92AF3037
:1000F000B107E1F70E947D030C948C030C9400007F
:1001000080910001909101010196909301018093EB
:1001100000010895109201011092000186E00E94F2
:10012000AD02892BB9F38DE061E00E94590287E0AE
:1001300061E00E945902809100019091010180507C
:100140009940CCF387E060E00E9459028DE060E0C6
:100150000E94590268EE73E080E090E00E94860100
:10016000089586E060E00E941A0287E061E00E9444
:100170001A0288E061E00E941A0289E061E00E94B0
:100180001A028DE061E00E941A028DE060E00E9498
:10019000590287E060E00E94590288E060E00E9416
:1001A000590289E062E370E00E94DE0080E060E8CE
:1001B00070E043E050E00E94000308951F93CF9346
:1001C000DF93182FEB0161E00E941A02209709F4D7
:1001D0004AC0CF3FD10509F449C0E12FF0E0E25514
:1001E000FF4F84918330C1F0843028F4813051F086
:1001F0008230B1F50CC0863019F1873049F1843076
:1002000079F514C084B5806884BDC7BD33C084B59A
:10021000806284BDC8BD2EC08091800080688093BC
:100220008000D0938900C093880024C08091800012
:10023000806280938000D0938B00C0938A001AC0A4
:100240008091B00080688093B000C093B30012C06A
:100250008091B00080628093B000C093B4000AC067
:10026000C038D1051CF4812F60E002C0812F61E00D
:100270000E945902DF91CF911F9108951F920F9212
:100280000FB60F9211242F933F938F939F93AF93A9
:10029000BF938091060190910701A0910801B09150
:1002A000090130910A010196A11DB11D232F2D5F77
:1002B0002D3720F02D570196A11DB11D20930A0165
:1002C0008093060190930701A0930801B093090160
:1002D0008091020190910301A0910401B091050168
:1002E0000196A11DB11D8093020190930301A0937B
:1002F0000401B0930501BF91AF919F918F913F9100
:100300002F910F900FBE0F901F9018959B01AC017D
:100310007FB7F8948091020190910301A0910401AC
:10032000B091050166B5A89B05C06F3F19F0019615
:10033000A11DB11D7FBFBA2FA92F982F8827860F27
:10034000911DA11DB11D62E0880F991FAA1FBB1F3F
:100350006A95D1F7BC012DC0FFB7F89480910201D6
:1003600090910301A0910401B0910501E6B5A89B0D
:1003700005C0EF3F19F00196A11DB11DFFBFBA2FB7
:10038000A92F982F88278E0F911DA11DB11DE2E086
:10039000880F991FAA1FBB1FEA95D1F7861B970BE1
:1003A000885E9340C8F22150304040405040685130
:1003B0007C4F211531054105510571F6089578945A
:1003C00084B5826084BD84B5816084BD85B582605A
:1003D00085BD85B5816085BDEEE6F0E080818160F8
:1003E0008083E1E8F0E010828081826080838081F8
:1003F00081608083E0E8F0E0808181608083E1EBD0
:10040000F0E0808184608083E0EBF0E080818160B7
:100410008083EAE7F0E0808184608083808182606D
:100420008083808181608083808180688083109256
:10043000C1000895CF93DF93482F50E0CA0186563C
:100440009F4FFC0134914A575F4FFA0184918823F2
:1004500069F190E0880F991FFC01E859FF4FA591C1
:10046000B491FC01EE58FF4FC591D491662351F42D
:100470002FB7F8948C91932F909589238C93888132
:1004800089230BC0623061F42FB7F8948C91932FBD
:10049000909589238C938881832B88832FBF06C0F6
:1004A0009FB7F8948C91832B8C939FBFDF91CF9152
:1004B0000895482F50E0CA0182559F4FFC012491B6
:1004C000CA0186569F4FFC0194914A575F4FFA012B
:1004D0003491332309F440C0222351F1233071F0C9
:1004E000243028F42130A1F0223011F514C0263038
:1004F000B1F02730C1F02430D9F404C080918000DD
:100500008F7703C0809180008F7D8093800010C022
:1005100084B58F7702C084B58F7D84BD09C080917A
:10052000B0008F7703C08091B0008F7D8093B000C2
:10053000E32FF0E0EE0FFF1FEE58FF4FA591B491AF
:100540002FB7F894662321F48C919095892302C0EB
:100550008C91892B8C932FBF0895682F70E0CB016D
:1005600082559F4FFC012491CB0186569F4FFC0181
:1005700044916A577F4FFB019491992319F420E02D
:1005800030E03CC0222351F1233071F0243028F4B4
:100590002130A1F0223011F514C02630B1F02730FF
:1005A000C1F02430D9F404C0809180008F7703C05B
:1005B000809180008F7D8093800010C084B58F77FC
:1005C00002C084B58F7D84BD09C08091B0008F7753
:1005D00003C08091B0008F7D8093B000892F90E0A0
:1005E000880F991F84589F4FFC01A591B4918C915D
:1005F00020E030E0842311F021E030E0C9010895CB
:10060000823000F5E82FF0E0EE0FFF1FE55FFE4FB0
:1006100071836083882319F08130A1F408C0809130
:1006200069008C7F842B80936900E89A08958091FB
:100630006900440F551F440F551F837F842B8093FF
:100640006900E99A08951F920F920FB60F92112434
:100650002F933F934F935F936F937F938F939F93CA
:10066000AF93BF93EF93FF9380910B0190910C0197
:10067000892B29F0E0910B01F0910C010995FF9174
:10068000EF91BF91AF919F918F917F916F915F910A
:100690004F913F912F910F900FBE0F901F90189583
:1006A0001F920F920FB60F9211242F933F934F93E7
:1006B0005F936F937F938F939F93AF93BF93EF93CA
:1006C000FF9380910D0190910E01892B29F0E0910B
:1006D0000D01F0910E010995FF91EF91BF91AF913E
:1006E0009F918F917F916F915F914F913F912F914A
:1006F0000F900FBE0F901F901895CF93DF930E941D
:10070000DF010E94B100C0E0D0E00E948A00209783
:0C071000E1F30E940000F9CFF894FFCF45
:00000001FF
