:100000000C9462000C948A000C948A000C948A0070
:100010000C948A000C948A000C948A000C948A0038
:100020000C948A000C948A000C948A000C948A0028
:100030000C948A000C948A000C948A000C948A0018
:100040000C94DB050C948A000C9452030C94A003CE
:100050000C948A000C948A000C948A000C948A00F8
:100060000C948A000C948A000000000024002700F1
:100070002A0000000000250028002B0000000000DE
:1000800023002600290004040404040404040202DA
:100090000202020203030303030301020408102007
:1000A0004080010204081020010204081020000012
:1000B0000007000201000003040600000000000029
:1000C00000000C0511241FBECFEFD8E0DEBFCDBF6E
:1000D00011E0A0E0B1E0E0E1FDE002C005900D928A
:1000E000AE31B107D9F711E0AEE1B1E001C01D9228
:1000F000A23DB107E1F710E0C4ECD0E004C02297C4
:10010000FE010E948206C23CD107C9F70E94420349
:100110000C9486060C94000080910D01883C28F414
:1001200060910D0186E070E007C080910D01893C6F
:1001300028F086E068EC70E00E944F0280910C018C
:10014000883C38F460910C0183E070E00E944F021B
:10015000089580910C01893C28F083E068EC70E000
:100160000E944F0208958EE680930C0186E48093EE
:100170000D010E948C0008951F9313B111704091DE
:100180001E014E7F412B40931E01E3B1F0E0E2706F
:10019000F070F595E795E1708E2F880F4D7F482B15
:1001A00040931E0163B170E064707070759567953F
:1001B000759567956170862F880F880F4B7F482B48
:1001C00040931E0123B130E02870307053E0359524
:1001D00027955A95E1F72170822F880F880F880F95
:1001E000477F482B40931E0183B190E0807190704F
:1001F00034E0959587953A95E1F78170582F52959F
:10020000507F4F7E452B40931E01F0E070E0A22FFF
:10021000B0E0482F50E0CF01862B972B212F30E004
:10022000822B932B8A2B9B2B842B952B892B09F4C8
:100230002D9A6E237F2380E090E0112311F481E05A
:1002400090E0682379236A237B2364237523672B3B
:1002500041F08BB18B7D8BB98BB180698BB90E94DA
:10026000B30040E050E080911E0181FD02C041E0FA
:1002700050E020911E01822F817090E04823592385
:10028000822F86958695817090E048235923269584
:1002900026952695822F817090E048235923269534
:1002A000217030E042235323452BE1F08BB18B7753
:1002B0008BB98BB180638BB980910D018A5080938B
:1002C0000D0180910C018F5F80930C0160910C01F6
:1002D00083E070E00E944F0260910D0186E070E0C3
:1002E0000E944F0220911E01822F86958170482F17
:1002F00050E0822F817090E04823592380E090E005
:1003000022FD02C081E090E04823592380911E0124
:10031000869586958695282F217030E042235323B9
:100320008695817090E048235923452B41F08BB18D
:100330008B778BB98BB180638BB90E94B30020910E
:100340001E01822F86958170482F50E0822F817088
:1003500090E048235923822F86958695817090E0FE
:100360004823592380E090E023FD02C081E090E023
:100370004823592380911E018295817090E0482383
:100380005923452B91F08BB18B778BB98BB180635F
:100390008BB980910C018A5080930C0180910D01E2
:1003A0008F5F80930D010E948C0020911E01822F8F
:1003B00086958170482F50E0822F817090E048230D
:1003C0005923822F86958695817090E04823592382
:1003D000822F869586958695817090E048235923D3
:1003E00080E090E024FD02C081E090E048235923A2
:1003F000452B41F08BB18F768BB98BB184628BB971
:100400000E94B30020911E01422F4695417050E09A
:10041000822F817090E048235923822F86958695FC
:10042000817090E048235923269526952695822FA2
:10043000817090E0482359232695217030E04223B3
:100440005323452B21F08BB18B748BB92D981F91C1
:1004500008950F931F9307EA11E0C80140E855E2A1
:1004600060E070E00E94DB03C80160E071E00E9480
:10047000C8058CEF8AB91BB860910D0186E070E069
:100480000E944F0260910C0183E070E00E944F02D5
:100490008BB18B748BB92D981F910F9108951F9379
:1004A000CF93DF93182FEB0161E00E94AF022097FA
:1004B00009F44AC0CF3FD10509F449C0E12FF0E06B
:1004C000E255FF4F84918330C1F0843028F48130AD
:1004D00051F08230B1F50CC0863019F1873049F106
:1004E000843079F514C084B5806884BDC7BD33C03D
:1004F00084B5806284BDC8BD2EC0809180008068B4
:1005000080938000D0938900C093880024C080919C
:100510008000806280938000D0938B00C0938A001B
:100520001AC08091B00080688093B000C093B3007F
:1005300012C08091B00080628093B000C093B4007C
:100540000AC0C038D1051CF4812F60E002C0812FA1
:1005500061E00E94EE02DF91CF911F910895CF9349
:10056000DF93482F50E0CA0186569F4FFC0134911B
:100570004A575F4FFA018491882369F190E0880F10
:10058000991FFC01E859FF4FA591B491FC01EE5869
:10059000FF4FC591D491662351F42FB7F8948C91F5
:1005A000932F909589238C93888189230BC0623087
:1005B00061F42FB7F8948C91932F909589238C93A5
:1005C0008881832B88832FBF06C09FB7F8948C91B6
:1005D000832B8C939FBFDF91CF910895482F50E0DC
:1005E000CA0182559F4FFC012491CA0186569F4F34
:1005F000FC0194914A575F4FFA013491332309F477
:1006000040C0222351F1233071F0243028F42130EE
:10061000A1F0223011F514C02630B1F02730C1F01E
:100620002430D9F404C0809180008F7703C080917A
:1006300080008F7D8093800010C084B58F7702C0CA
:1006400084B58F7D84BD09C08091B0008F7703C0D1
:100650008091B0008F7D8093B000E32FF0E0EE0F2B
:10066000FF1FEE58FF4FA591B4912FB7F894662362
:1006700021F48C919095892302C08C91892B8C93C5
:100680002FBF0895CF93DF930E9423060E94290273
:10069000CDE8D3E00E94BC002097E1F30E948D03D7
:1006A000F9CF08951F920F920FB60F9211242F9336
:1006B0003F934F938F939F93EF93FF938091C0004D
:1006C00082FD1DC04091C60020915F013091600104
:1006D0002F5F3F4F2F7330708091610190916201C5
:1006E0002817390771F0E0915F01F0916001E15E38
:1006F000FE4F40833093600120935F0102C08091E0
:10070000C600FF91EF919F918F914F913F912F9153
:100710000F900FBE0F901F901895E091B301F091CC
:10072000B401E05CFF4F8191919120813181821B66
:10073000930B8F739070892B11F00E9451030895D1
:100740001F920F920FB60F9211242F933F938F9306
:100750009F93EF93FF932091A3013091A401809187
:10076000A5019091A6012817390731F48091C100A5
:100770008F7D8093C10014C0E091A501F091A60186
:10078000ED59FE4F20818091A5019091A60101961F
:100790008F7390709093A6018093A5012093C6005B
:1007A000FF91EF919F918F913F912F910F900FBEED
:1007B0000F901F901895AF92BF92DF92EF92FF9229
:1007C0000F931F93CF93DF93EC017A018B01DD240C
:1007D000403081EE580780E0680780E0780711F02C
:1007E000DD24D39491E0A92EB12CEC89FD89DD2084
:1007F00069F0C50108A002C0880F991F0A94E2F7AA
:10080000808360E079E08DE390E005C0108260E8CD
:1008100074E88EE190E0A80197010E945E062150E5
:10082000304040405040569547953795279580E198
:100830002030380720F0DD2011F0DD24D6CFE88904
:10084000F9893083EA89FB89208319A2EE89FF891F
:10085000408121E030E0C9010C8C02C0880F991F53
:100860000A94E2F7482B4083EE89FF894081C90151
:100870000D8C02C0880F991F0A94E2F7482B408321
:10088000EE89FF894081C9010E8C02C0880F991F33
:100890000A94E2F7482B4083EE89FF8980810F8C10
:1008A00002C0220F331F0A94E2F7209528232083E9
:1008B000DF91CF911F910F91FF90EF90DF90BF904C
:1008C000AF900895DC011C96ED91FC911D97E05CC2
:1008D000FF4F2191319180819181281B390B2F731A
:1008E0003070C9010895DC011C96ED91FC911D97B3
:1008F000E05CFF4F20813181E054F040DF01AE5BCE
:10090000BF4F8D919C9111972817390719F42FEF3C
:100910003FEF07C08D919C91E80FF91F8081282F30
:1009200030E0C9010895DC011C96ED91FC911D9702
:10093000E05CFF4F20813181E054F040DF01AE5B8D
:10094000BF4F8D919C9111972817390719F42FEFFC
:100950003FEF10C08D919C911197E80FF91F2081F6
:100960008D919C91119701968F73907011969C9325
:100970008E9330E0C9010895DC0191968C91919796
:10098000882339F05496ED91FC915597808186FF2C
:10099000F9CF91961C920895CF93DF93EC01EE85E9
:1009A000FF85E05CFF4F20813181E054F0402F5FF4
:1009B0003F4F2F733070DF01AE5BBF4F8D919C9125
:1009C000119728173907D1F3E05CFF4F808191819F
:1009D000E054F040E80FF91F6083EE85FF85E05C8E
:1009E000FF4F31832083EE89FF89208181E090E0F1
:1009F0000F8C02C0880F991F0A94E2F7282B2083DE
:100A000081E089A3EC89FD8980818064808381E015
:100A100090E0DF91CF9108951092AA011092A90160
:100A200088EE93E0A0E0B0E08093AB019093AC013E
:100A3000A093AD01B093AE0182E191E09093A80143
:100A40008093A7018FE191E09093B4018093B3016B
:100A500083E691E09093B6018093B50185EC90E038
:100A60009093B8018093B70184EC90E09093BA0121
:100A70008093B90180EC90E09093BC018093BB011E
:100A800081EC90E09093BE018093BD0182EC90E0F8
:100A90009093C0018093BF0186EC90E09093C201D7
:100AA0008093C10184E08093C30183E08093C401FB
:100AB00087E08093C50185E08093C60181E0809343
:100AC000C7010895CF92DF92EF92FF920F931F9389
:100AD000CF93DF937C016B018A01C0E0D0E00FC0AF
:100AE000D6016D916D01D701ED91FC910190F081DE
:100AF000E02DC7010995C80FD91F015010400115FD
:100B0000110571F7CE01DF91CF911F910F91FF90E9
:100B1000EF90DF90CF900895EF92FF920F931F9385
:100B20008C01DC01ED91FC910190F081E02D6DE0F4
:100B300009957C01D801ED91FC910190F081E02DA7
:100B4000C8016AE009959C012E0D3F1DC9011F9146
:100B50000F91FF90EF900895CF93DF93EC01611513
:100B6000710519F420E030E00FC0DB010D9000208A
:100B7000E9F71197A61BB70BE881F9810280F38191
:100B8000E02DAD0109959C01C901DF91CF91089538
:100B9000EF92FF920F931F937C010E94AC058C0192
:100BA000C7010E948C05080F191FC8011F910F91E2
:100BB000FF90EF9008951F920F920FB60F9211249D
:100BC0002F933F938F939F93AF93BF938091CD01CA
:100BD0009091CE01A091CF01B091D0013091D1017F
:100BE0000196A11DB11D232F2D5F2D3720F02D570C
:100BF0000196A11DB11D2093D1018093CD01909349
:100C0000CE01A093CF01B093D0018091C901909102
:100C1000CA01A091CB01B091CC010196A11DB11DDB
:100C20008093C9019093CA01A093CB01B093CC01EA
:100C3000BF91AF919F918F913F912F910F900FBED8
:100C40000F901F901895789484B5826084BD84B508
:100C5000816084BD85B5826085BD85B5816085BDB7
:100C6000EEE6F0E0808181608083E1E8F0E01082D0
:100C7000808182608083808181608083E0E8F0E011
:100C8000808181608083E1EBF0E0808184608083FB
:100C9000E0EBF0E0808181608083EAE7F0E0808132
:100CA0008460808380818260808380818160808392
:100CB0008081806880831092C1000895A1E21A2E7D
:100CC000AA1BBB1BFD010DC0AA1FBB1FEE1FFF1FF0
:100CD000A217B307E407F50720F0A21BB30BE40B40
:100CE000F50B661F771F881F991F1A9469F7609587
:100CF0007095809590959B01AC01BD01CF01089541
:100D0000EE0FFF1F0590F491E02D0994F894FFCFAA
:100D100057696C6C6B6F6D6D656E21006E460000DF
:0E0D20000000CC046205620493047304BC045A
:00000001FF
