:100000000C9462000C94A3050C94D0050C948A0007
:100010000C948A000C948A000C948A000C948A0038
:100020000C948A000C948A000C948A000C948A0028
:100030000C948A000C948A000C948A000C948A0018
:100040000C94BE030C948A000C940D060C945B0671
:100050000C948A000C948A000C948A000C948A00F8
:100060000C948A000C948A000000000024002700F1
:100070002A0000000000250028002B0000000000DE
:1000800023002600290004040404040404040202DA
:100090000202020203030303030301020408102007
:1000A0004080010204081020010204081020000012
:1000B0000007000201000003040600000000000029
:1000C0000000C70711241FBECFEFD8E0DEBFCDBFB1
:1000D00011E0A0E0B1E0E2EBF3E102C005900D9287
:1000E000AA31B107D9F711E0AAE1B1E001C01D9230
:1000F000A73DB107E1F710E0C4ECD0E004C02297BF
:10010000FE010E94D309C23CD107C9F70E94FD0538
:100110000C94D7090C94000080911A0190911B0156
:10012000019690931B0180931A01089580911C0100
:1001300090911D01019690931D0180931C010895DB
:1001400084E060E00E94D90487E060E00E94D90466
:10015000089585E060E00E94D90488E060E00E9494
:10016000D904089584E061E00E94D90487E061E049
:100170000E94D904089584E060E00E94D90488E0D8
:1001800060E00E94D90485E061E00E94D90487E024
:1001900061E00E94D90463E070E080E090E00E949A
:1001A000060485E060E00E94D90487E060E00E94D8
:1001B000D90408952F923F924F925F926F927F924F
:1001C0008F929F92AF92BF92CF92DF92EF92FF9267
:1001D0000F931F93DF93CF9300D000D000D0CDB703
:1001E000DEB710921F0110921E0110921D01109295
:1001F0001C0110921B0110921A0120E733E0829F2C
:100200002001839F500C929F500C112484E061E0E8
:100210000E94D90488E061E00E94D9048AE06BE47E
:1002200070E00E945E031E821D82C201AA2797FD14
:10023000A095BA2F89839A83AB83BC838EEF282E37
:100240008FEF382E240C351CDAC0E0901A01F090A4
:100250001B0169817A818B819C810E9498083B01F6
:100260004C0123E333E343E35FE30E944C095B016A
:100270006C010027F7FC0095102FC801B7010E9400
:100280009808A60195010E94480988230CF465C0CE
:1002900060911C0170911D01882777FD8095982F32
:1002A0000E949808A60195010E94480988230CF431
:1002B00054C08AE06FE270E00E945E03E0901C018F
:1002C000F0901D01C401B3012DEC3CEC4CE45FE364
:1002D0000E944C095B016C010027F7FC0095102F70
:1002E000C801B7010E949808A60195010E9448091B
:1002F000882354F160911A0170911B01882777FDC2
:100300008095982F0E949808A60195010E9448099F
:100310008823D4F08AE06FE170E00E945E03809150
:100320001A0190911B01821593059CF080911C018C
:1003300090911D018215930564F00E94BB00A3E01B
:10034000B0E0BE83AD8309C0E1E0F0E0FE83ED8361
:1003500004C023E030E03E832D8380911A01909108
:100360001B0120911C0130911D01821B930B909366
:100370001F0180931E0180911E0190911F0118168C
:100380001906ECF480910601909107010596AD8164
:10039000BE818A1B9B0B9093070180930601813AD3
:1003A000910534F0E0EAF0E0F0930701E0930601F4
:1003B000609106017091070189E00E945E038091BF
:1003C0001E0190911F0197FF1AC080910601909124
:1003D000070104972D813E81820F931F909307019F
:1003E0008093060197FF04C0109207011092060146
:1003F000609106017091070189E00E945E0380917F
:100400001C0190911D01481659060CF01ECF84E086
:1004100060E00E94D90488E060E00E94D904109254
:100420001F0110921E0110921D0110921C011092CA
:100430001B0110921A0126960FB6F894DEBF0FBE6C
:10044000CDBFCF91DF911F910F91FF90EF90DF9083
:10045000CF90BF90AF909F908F907F906F905F9064
:100460004F903F902F90089585E061E00E94D9045D
:1004700088E061E00E94D9048AE06FE570E00E94A4
:100480005E030895EF92FF920F931F93CF93DF9334
:1004900010921F0110921E0110921D0110921C015A
:1004A00010921B0110921A018C01000F111F0E9463
:1004B00034028AE06FE570E00E945E03C0E0D0E0A5
:1004C00090EAE92EF12C53C08AE06FE270E00E94BE
:1004D0005E03C1E0D0E080911A0190911B01209150
:1004E0001C0130911D01821B930B90931F0180937F
:1004F0001E0180911E0190911F0118161906CCF45F
:10050000809106019091070106968C1B9D0B90939C
:10051000070180930601813A910524F0F0920701CA
:10052000E0920601609106017091070189E00E9446
:100530005E0380911E0190911F0197FF18C080916A
:1005400006019091070103978C0F9D1F909307015F
:100550008093060197FF04C01092070110920601D4
:10056000609106017091070189E00E945E0380910D
:100570001C0190911D010817190784F080911A0140
:1005800090911B01081719074CF080911A01909166
:100590001B018C5494400CF49ECF96CF85EB91E0D8
:1005A00060E071E00E9483080E94A9000E94B200EE
:1005B00067E070E080E090E00E9406040E94A000E6
:1005C00010921F0110921E0110921D0110921C0129
:1005D00010921B0110921A01DF91CF911F910F9180
:1005E000FF90EF9008958DE060E00E94D90486E0CE
:1005F0000E942D05892BD9F382E692E00E944202E7
:100600006AE872E080E090E00E94060481E090E0F9
:100610000E94DA006AE872E080E090E00E9406043E
:10062000089580E06CE870E043E050E00E948005AF
:1006300081E066E970E043E050E00E94800585EBD0
:1006400091E040E855E260E070E00E94960686E0A6
:1006500060E00E949A048DE061E00E949A0484E0C8
:1006600061E00E949A0485E061E00E949A0487E0BC
:1006700061E00E949A0488E061E00E949A0489E0A7
:1006800061E00E949A048AE061E00E949A0460910D
:1006900006017091070189E00E945E0360910801E4
:1006A000709109018AE00E945E0387E060E00E9489
:1006B000D90488E060E00E94D90408951F93CF9385
:1006C000DF93182FEB0161E00E949A04209709F450
:1006D0004AC0CF3FD10509F449C0E12FF0E0E2550F
:1006E000FF4F84918330C1F0843028F4813051F081
:1006F0008230B1F50CC0863019F1873049F1843071
:1007000079F514C084B5806884BDC7BD33C084B595
:10071000806284BDC8BD2EC08091800080688093B7
:100720008000D0938900C093880024C0809180000D
:10073000806280938000D0938B00C0938A001AC09F
:100740008091B00080688093B000C093B30012C065
:100750008091B00080628093B000C093B4000AC062
:10076000C038D1051CF4812F60E002C0812F61E008
:100770000E94D904DF91CF911F9108951F920F928B
:100780000FB60F9211242F933F938F939F93AF93A4
:10079000BF938091240190912501A0912601B091F1
:1007A0002701309128010196A11DB11D232F2D5F36
:1007B0002D3720F02D570196A11DB11D2093280142
:1007C0008093240190932501A0932601B0932701E3
:1007D0008091200190912101A0912201B0912301EB
:1007E0000196A11DB11D8093200190932101A0933A
:1007F0002201B0932301BF91AF919F918F913F91BF
:100800002F910F900FBE0F901F9018959B01AC0178
:100810007FB7F8948091200190912101A09122014D
:10082000B091230166B5A89B05C06F3F19F00196F2
:10083000A11DB11D7FBFBA2FA92F982F8827860F22
:10084000911DA11DB11D62E0880F991FAA1FBB1F3A
:100850006A95D1F7BC012DC0FFB7F89480912001B3
:1008600090912101A0912201B0912301E6B5A89BAE
:1008700005C0EF3F19F00196A11DB11DFFBFBA2FB2
:10088000A92F982F88278E0F911DA11DB11DE2E081
:10089000880F991FAA1FBB1FEA95D1F7861B970BDC
:1008A000885E9340C8F2215030404040504068512B
:1008B0007C4F211531054105510571F60895789455
:1008C00084B5826084BD84B5816084BD85B5826055
:1008D00085BD85B5816085BDEEE6F0E080818160F3
:1008E0008083E1E8F0E010828081826080838081F3
:1008F00081608083E0E8F0E0808181608083E1EBCB
:10090000F0E0808184608083E0EBF0E080818160B2
:100910008083EAE7F0E08081846080838081826068
:100920008083808181608083808180688083109251
:10093000C1000895CF93DF93482F50E0CA01865637
:100940009F4FFC0134914A575F4FFA0184918823ED
:1009500069F190E0880F991FFC01E859FF4FA591BC
:10096000B491FC01EE58FF4FC591D491662351F428
:100970002FB7F8948C91932F909589238C9388812D
:1009800089230BC0623061F42FB7F8948C91932FB8
:10099000909589238C938881832B88832FBF06C0F1
:1009A0009FB7F8948C91832B8C939FBFDF91CF914D
:1009B0000895482F50E0CA0182559F4FFC012491B1
:1009C000CA0186569F4FFC0194914A575F4FFA0126
:1009D0003491332309F440C0222351F1233071F0C4
:1009E000243028F42130A1F0223011F514C0263033
:1009F000B1F02730C1F02430D9F404C080918000D8
:100A00008F7703C0809180008F7D8093800010C01D
:100A100084B58F7702C084B58F7D84BD09C0809175
:100A2000B0008F7703C08091B0008F7D8093B000BD
:100A3000E32FF0E0EE0FFF1FEE58FF4FA591B491AA
:100A40002FB7F894662321F48C919095892302C0E6
:100A50008C91892B8C932FBF0895682F70E0CB0168
:100A600082559F4FFC012491CB0186569F4FFC017C
:100A700044916A577F4FFB019491992319F420E028
:100A800030E03CC0222351F1233071F0243028F4AF
:100A90002130A1F0223011F514C02630B1F02730FA
:100AA000C1F02430D9F404C0809180008F7703C056
:100AB000809180008F7D8093800010C084B58F77F7
:100AC00002C084B58F7D84BD09C08091B0008F774E
:100AD00003C08091B0008F7D8093B000892F90E09B
:100AE000880F991F84589F4FFC01A591B4918C9158
:100AF00020E030E0842311F021E030E0C9010895C6
:100B0000823000F5E82FF0E0EE0FFF1FE75DFE4FAB
:100B100071836083882319F08130A1F408C080912B
:100B200069008C7F842B80936900E89A08958091F6
:100B30006900440F551F440F551F837F842B8093FA
:100B40006900E99A08951F920F920FB60F9211242F
:100B50002F933F934F935F936F937F938F939F93C5
:100B6000AF93BF93EF93FF938091290190912A0156
:100B7000892B29F0E0912901F0912A010995FF9133
:100B8000EF91BF91AF919F918F917F916F915F9105
:100B90004F913F912F910F900FBE0F901F9018957E
:100BA0001F920F920FB60F9211242F933F934F93E2
:100BB0005F936F937F938F939F93AF93BF93EF93C5
:100BC000FF9380912B0190912C01892B29F0E091CA
:100BD0002B01F0912C010995FF91EF91BF91AF91FD
:100BE0009F918F917F916F915F914F913F912F9145
:100BF0000F900FBE0F901F901895CF93DF930E9418
:100C00005F040E941103C8E4D6E00E94F30220971B
:100C1000E1F30E944806F9CF08951F920F920FB694
:100C20000F9211242F933F934F938F939F93EF93A2
:100C3000FF938091C00082FD1DC04091C6002091AD
:100C40006D0130916E012F5F3F4F2F733070809197
:100C50006F01909170012817390771F0E0916D01D3
:100C6000F0916E01E35DFE4F408330936E0120935F
:100C70006D0102C08091C600FF91EF919F918F910D
:100C80004F913F912F910F900FBE0F901F9018958D
:100C9000E091C101F091C201E05CFF4F819191911F
:100CA00020813181821B930B8F739070892B11F0FF
:100CB0000E940C0608951F920F920FB60F921124F6
:100CC0002F933F938F939F93EF93FF932091B101C5
:100CD0003091B2018091B3019091B4012817390786
:100CE00031F48091C1008F7D8093C10014C0E091E8
:100CF000B301F091B401EF58FE4F20818091B30110
:100D00009091B40101968F7390709093B401809389
:100D1000B3012093C600FF91EF919F918F913F9176
:100D20002F910F900FBE0F901F901895AF92BF920A
:100D3000DF92EF92FF920F931F93CF93DF93EC011B
:100D40007A018B01DD24403081EE580780E068078E
:100D500080E0780711F0DD24D39491E0A92EB12C26
:100D6000EC89FD89DD2069F0C50108A002C0880F6B
:100D7000991F0A94E2F7808360E079E08DE390E0C8
:100D800005C0108260E874E88EE190E0A801970148
:100D90000E94AF0921503040404050405695479541
:100DA0003795279580E12030380720F0DD2011F0BD
:100DB000DD24D6CFE889F9893083EA89FB8920834D
:100DC00019A2EE89FF89408121E030E0C9010C8C35
:100DD00002C0880F991F0A94E2F7482B4083EE89DE
:100DE000FF894081C9010D8C02C0880F991F0A94A8
:100DF000E2F7482B4083EE89FF894081C9010E8CC0
:100E000002C0880F991F0A94E2F7482B4083EE89AD
:100E1000FF8980810F8C02C0220F331F0A94E2F7F2
:100E2000209528232083DF91CF911F910F91FF9070
:100E3000EF90DF90BF90AF900895DC011C96ED918C
:100E4000FC911D97E05CFF4F219131918081918150
:100E5000281B390B2F733070C9010895DC011C96D3
:100E6000ED91FC911D97E05CFF4F20813181E054B2
:100E7000F040DF01AE5BBF4F8D919C911197281719
:100E8000390719F42FEF3FEF07C08D919C91E80FC0
:100E9000F91F8081282F30E0C9010895DC011C96DC
:100EA000ED91FC911D97E05CFF4F20813181E05472
:100EB000F040DF01AE5BBF4F8D919C9111972817D9
:100EC000390719F42FEF3FEF10C08D919C911197C6
:100ED000E80FF91F20818D919C91119701968F73D6
:100EE000907011969C938E9330E0C9010895DC01B7
:100EF00091968C919197882339F05496ED91FC91BD
:100F00005597808186FFF9CF91961C920895CF93D3
:100F1000DF93EC01EE85FF85E05CFF4F208131819E
:100F2000E054F0402F5F3F4F2F733070DF01AE5B16
:100F3000BF4F8D919C91119728173907D1F3E05C31
:100F4000FF4F80819181E054F040E80FF91F6083EA
:100F5000EE85FF85E05CFF4F31832083EE89FF89BA
:100F6000208181E090E00F8C02C0880F991F0A94C5
:100F7000E2F7282B208381E089A3EC89FD89808119
:100F80008064808381E090E0DF91CF91089510929A
:100F9000B8011092B70188EE93E0A0E0B0E0809332
:100FA000B9019093BA01A093BB01B093BC018EE04C
:100FB00091E09093B6018093B5018DE291E090931A
:100FC000C2018093C10181E791E09093C4018093B5
:100FD000C30185EC90E09093C6018093C50184EC39
:100FE00090E09093C8018093C70180EC90E09093CB
:100FF000CA018093C90181EC90E09093CC01809369
:10100000CB0182EC90E09093CE018093CD0186ECF1
:1010100090E09093D0018093CF0184E08093D10140
:1010200083E08093D20187E08093D30185E08093B1
:10103000D40181E08093D5010895CF92DF92EF92A1
:10104000FF920F931F93CF93DF937C016B018A0173
:10105000C0E0D0E00FC0D6016D916D01D701ED91D8
:10106000FC910190F081E02DC7010995C80FD91FAF
:10107000015010400115110571F7CE01DF91CF919C
:101080001F910F91FF90EF90DF90CF900895EF9216
:10109000FF920F931F938C01DC01ED91FC91019065
:1010A000F081E02D6DE009957C01D801ED91FC9176
:1010B0000190F081E02DC8016AE009959C012E0D98
:1010C0003F1DC9011F910F91FF90EF900895CF939D
:1010D000DF93EC016115710519F420E030E00FC0D9
:1010E000DB010D900020E9F71197A61BB70BE881F3
:1010F000F9810280F381E02DAD0109959C01C901C0
:10110000DF91CF910895EF92FF920F931F937C018F
:101110000E9467088C01C7010E944708080F191F29
:10112000C8011F910F91FF90EF900895E89409C0B6
:1011300097FB3EF490958095709561957F4F8F4F0A
:101140009F4F9923A9F0F92F96E9BB279395F69520
:10115000879577956795B795F111F8CFFAF4BB0F9E
:1011600011F460FF1BC06F5F7F4F8F4F9F4F16C002
:10117000882311F096E911C0772321F09EE8872F8C
:10118000762F05C0662371F096E8862F70E060E048
:101190002AF09A95660F771F881FDAF7880F9695C1
:1011A000879597F90895990F0008550FAA0BE0E865
:1011B000FEEF16161706E807F907C0F01216130619
:1011C000E407F50798F0621B730B840B950B39F459
:1011D0000A2661F0232B242B252B21F408950A26BF
:1011E00009F4A140A6958FEF811D811D089597F9FF
:1011F0009F6780E870E060E008959FEF80EC0895BD
:1012000000240A94161617061806090608950024E5
:101210000A9412161306140605060895092E03945F
:10122000000C11F4882352F0BB0F40F4BF2B11F4D3
:1012300060FF04C06F5F7F4F8F4F9F4F089557FD32
:101240009058440F551F59F05F3F71F04795880F34
:1012500097FB991F61F09F3F79F0879508951216CB
:1012600013061406551FF2CF4695F1DF08C0161677
:1012700017061806991FF1CF869571056105089428
:101280000895E894BB2766277727CB0197F908953F
:101290008ADF08F48FEF08950BD0C0CFB1DF28F0BC
:1012A000B6DF18F0952309F0A2CFA7CF1124EACF1B
:1012B000C6DFA0F3959FD1F3950F50E0551F629FB5
:1012C000F001729FBB27F00DB11D639FAA27F00D9F
:1012D000B11DAA1F649F6627B00DA11D661F829FC6
:1012E0002227B00DA11D621F739FB00DA11D621FAB
:1012F000839FA00D611D221F749F3327A00D611DC8
:10130000231F849F600D211D822F762F6A2F1124A9
:101310009F5750408AF0E1F088234AF0EE0FFF1FFC
:10132000BB1F661F771F881F91505040A9F79E3F33
:10133000510570F05CCFA6CF5F3FECF3983EDCF335
:10134000869577956795B795F795E7959F5FC1F770
:10135000FE2B880F911D9695879597F90895A1E228
:101360001A2EAA1BBB1BFD010DC0AA1FBB1FEE1F1F
:10137000FF1FA217B307E407F50720F0A21BB30B6A
:10138000E40BF50B661F771F881F991F1A9469F7E6
:1013900060957095809590959B01AC01BD01CF0142
:1013A0000895EE0FFF1F0590F491E02D0994F89435
:0213B000FFCF6D
:1013B20053544F5021005F005F0000000000870778
:0A13C2001D081D074E072E077707D0
:00000001FF
