:100000000C9462000C9495050C94C2050C948A0023
:100010000C948A000C948A000C948A000C948A0038
:100020000C948A000C948A000C948A000C948A0028
:100030000C948A000C948A000C948A000C948A0018
:100040000C94B0030C948A000C94FF050C944D069C
:100050000C948A000C948A000C948A000C948A00F8
:100060000C948A000C948A000000000024002700F1
:100070002A0000000000250028002B0000000000DE
:1000800023002600290004040404040404040202DA
:100090000202020203030303030301020408102007
:1000A0004080010204081020010204081020000012
:1000B0000007000201000003040600000000000029
:1000C0000000B90711241FBECFEFD8E0DEBFCDBFBF
:1000D00011E0A0E0B1E0E0EBF6E102C005900D9286
:1000E000A63CB107D9F712E0A6ECB1E001C01D9221
:1000F000AB38B107E1F710E0C4ECD0E004C02297C0
:10010000FE010E94520BC23CD107C9F70E94EF05C5
:100110000C94560B0C9400008091CA019091CB0175
:1001200001969093CB018093CA0108958091CC01F0
:100130009091CD0101969093CD018093CC010895CB
:1001400088E060E00E94CB0485E060E00E94CB0480
:1001500087E060E00E94CB0484E060E00E94CB0472
:1001600008956F927F928F929F92AF92BF92CF929B
:10017000DF92EF92FF920F931F93CF93DF933C0197
:100180004B014130510521F4F5E0AF2EB12C17C0E1
:100190004230510521F4E4E0AE2EB12C06C04330CC
:1001A000510539F475E0A72EB12C68E0C62ED12C8C
:1001B00010C04430510539F454E0A52EB12C47E06D
:1001C000C42ED12C06C038E0A32EB12C24E0C22EC0
:1001D000D12C1092C7011092C6011092C901109241
:1001E000C8019092C9018092C801E4012A9726E4CF
:1001F00082169104FCF4BE01882777FD8095982F24
:100200000E94F9097B018C01B401882777FD809554
:10021000982F0E94F9092DEC3CEC4CEC5DE30E9418
:10022000850A9B01AC01C801B7010E9462090E94C6
:10023000C609EB0189E0BE010E9450036091C8012C
:100240007091C9018AE00E9450039A2C8A2D61E0C6
:100250000E94CB04EC2C8C2D61E00E94CB0489E63B
:1002600092E060E071E00E944E0966E970E080E093
:1002700090E00E94F8031092CB011092CA011092F4
:10028000CD011092CC0100EF10E010C12091C80107
:100290003091C9018091CE019091CF0165E070E06D
:1002A0000E94070B260F371F3093C9012093C80106
:1002B0008091C8019091C901813F910524F010936C
:1002C000C9010093C8016091C8017091C9018AE019
:1002D0000E9450038091CE019091CF016BEF7FEF90
:1002E0000E94070BC60FD71FD7FF02C0C0E0D0E0A7
:1002F00089E0BE010E9450038091CE019091CF0110
:1003000018161906B4F52091C8013091C9018091E1
:10031000CE019091CF016BEF7FEF0E94070B260F6C
:10032000371F3093C9012093C8018091C801909173
:10033000C90197FF04C01092C9011092C8016091D1
:10034000C8017091C9018AE00E9450038091CE01DA
:100350009091CF0165E070E00E94070BC60FD71F98
:10036000C13FD10514F0C0EFD0E089E0BE010E948A
:1003700050038091C8019091C9019E01281B390B3F
:100380003093D1012093D0018091D0019091D1017F
:10039000CD9724F18091C8019091C9010196909365
:1003A000C9018093C8012397D7FF02C0C0E0D0E005
:1003B00089E0BE010E9450038091C8019091C9015B
:1003C000813F910524F01093C9010093C801609109
:1003D000C8017091C9018AE00E9450038091D00148
:1003E0009091D101885D9F4F24F58091C801909133
:1003F000C90101979093C9018093C8012396C13F19
:10040000D10514F0C0EFD0E089E0BE010E94500396
:100410008091C8019091C90197FF04C01092C90151
:100420001092C8016091C8017091C9018AE00E94D0
:10043000500389E692E062E371E00E944B0960910B
:10044000CE017091CF0189E692E04AE050E00E942F
:10045000190989E692E069E371E00E944B0989E697
:1004600092E0BE014AE050E00E94190989E692E05C
:100470006AE471E00E944B096091C8017091C90162
:1004800089E692E04AE050E00E94190989E692E08C
:100490006BE571E00E944B096091D2017091D3012C
:1004A00089E692E04AE050E00E942C098091CA015E
:1004B0009091CB01861597053CF08091CC019091ED
:1004C000CD0186159705B4F48091CA019091CB01B6
:1004D0002091CC013091CD01821B930B9093CF01E1
:1004E0008093CE018091CE019091CF0199230CF0A1
:1004F00003CFCCCE89E692E068E671E00E944B091A
:100500006091CA017091CB0189E692E04AE050E027
:100510000E94190989E692E066E771E00E944B09A2
:100520006091CC017091CD0189E692E04AE050E003
:100530000E942C09892D60E00E94CB048E2D60E082
:100540000E94CB0464E670E080E090E00E94F80333
:1005500089E692E06AE871E00E944B096091CA0165
:100560007091CB0189E692E04AE050E00E941909BF
:1005700089E692E06DE971E00E944B096091CC013F
:100580007091CD0189E692E04AE050E00E942C098A
:100590001092CF011092CE01DF91CF911F910F9158
:1005A000FF90EF90DF90CF90BF90AF909F908F9093
:1005B0007F906F90089586E00E941F05892BD9F3E4
:1005C0008DE061E00E94CB0460ED77E080E090E098
:1005D0000E94F80384EF95E069E570E041E050E0A7
:1005E0000E94B10068E572E080E090E00E94F803AC
:1005F0008DE060E00E94CB04089589E692E040E837
:1006000055E260E070E00E94880680E06CE870E0EF
:1006100043E050E00E94720581E066E970E043E04B
:1006200050E00E94720587E061E00E948C0488E03F
:1006300061E00E948C0484E061E00E948C0485E00B
:1006400061E00E948C048DE061E00E948C048DE0EA
:1006500060E00E94CB0487E060E00E94CB0488E069
:1006600060E00E94CB0484E060E00E94CB0485E05F
:1006700060E00E94CB048AE062E370E00E945003D5
:1006800089E062E370E00E9450031092CB01109267
:10069000CA011092CD011092CC010E94A0000895D1
:1006A0001F93CF93DF93182FEB0161E00E948C041E
:1006B000209709F44AC0CF3FD10509F449C0E12F82
:1006C000F0E0E255FF4F84918330C1F0843028F48C
:1006D000813051F08230B1F50CC0863019F187308D
:1006E00049F1843079F514C084B5806884BDC7BDF4
:1006F00033C084B5806284BDC8BD2EC080918000A7
:10070000806880938000D0938900C093880024C0C3
:1007100080918000806280938000D0938B00C09392
:100720008A001AC08091B00080688093B000C093A6
:10073000B30012C08091B00080628093B000C0937B
:10074000B4000AC0C038D1051CF4812F60E002C09B
:10075000812F61E00E94CB04DF91CF911F9108951A
:100760001F920F920FB60F9211242F933F938F93E6
:100770009F93AF93BF938091D8019091D901A0919D
:10078000DA01B091DB013091DC010196A11DB11DB0
:10079000232F2D5F2D3720F02D570196A11DB11D60
:1007A0002093DC018093D8019093D901A093DA01C2
:1007B000B093DB018091D4019091D501A091D60135
:1007C000B091D7010196A11DB11D8093D4019093E2
:1007D000D501A093D601B093D701BF91AF919F915E
:1007E0008F913F912F910F900FBE0F901F901895F2
:1007F0009B01AC017FB7F8948091D4019091D50111
:10080000A091D601B091D70166B5A89B05C06F3FF6
:1008100019F00196A11DB11D7FBFBA2FA92F982FE6
:100820008827860F911DA11DB11D62E0880F991FB9
:10083000AA1FBB1F6A95D1F7BC012DC0FFB7F89462
:100840008091D4019091D501A091D601B091D701AA
:10085000E6B5A89B05C0EF3F19F00196A11DB11D9B
:10086000FFBFBA2FA92F982F88278E0F911DA11D8A
:10087000B11DE2E0880F991FAA1FBB1FEA95D1F7AF
:10088000861B970B885E9340C8F221503040404051
:10089000504068517C4F211531054105510571F6D5
:1008A0000895789484B5826084BD84B5816084BDE8
:1008B00085B5826085BD85B5816085BDEEE6F0E0D9
:1008C000808181608083E1E8F0E010828081826035
:1008D0008083808181608083E0E8F0E080818160B6
:1008E0008083E1EBF0E0808184608083E0EBF0E0E6
:1008F000808181608083EAE7F0E08081846080838A
:100900008081826080838081816080838081806833
:1009100080831092C1000895CF93DF93482F50E059
:10092000CA0186569F4FFC0134914A575F4FFA0126
:100930008491882369F190E0880F991FFC01E859A0
:10094000FF4FA591B491FC01EE58FF4FC591D49192
:10095000662351F42FB7F8948C91932F90958923A7
:100960008C93888189230BC0623061F42FB7F8948F
:100970008C91932F909589238C938881832B8883E6
:100980002FBF06C09FB7F8948C91832B8C939FBF89
:10099000DF91CF910895482F50E0CA0182559F4FB3
:1009A000FC012491CA0186569F4FFC0194914A573D
:1009B0005F4FFA013491332309F440C0222351F1EF
:1009C000233071F0243028F42130A1F0223011F5C9
:1009D00014C02630B1F02730C1F02430D9F404C05F
:1009E000809180008F7703C0809180008F7D8093FD
:1009F000800010C084B58F7702C084B58F7D84BD20
:100A000009C08091B0008F7703C08091B0008F7DC6
:100A10008093B000E32FF0E0EE0FFF1FEE58FF4F82
:100A2000A591B4912FB7F894662321F48C919095F9
:100A3000892302C08C91892B8C932FBF0895682F36
:100A400070E0CB0182559F4FFC012491CB0186566B
:100A50009F4FFC0144916A577F4FFB01949199236A
:100A600019F420E030E03CC0222351F1233071F032
:100A7000243028F42130A1F0223011F514C02630A2
:100A8000B1F02730C1F02430D9F404C08091800047
:100A90008F7703C0809180008F7D8093800010C08D
:100AA00084B58F7702C084B58F7D84BD09C08091E5
:100AB000B0008F7703C08091B0008F7D8093B0002D
:100AC000892F90E0880F991F84589F4FFC01A591B2
:100AD000B4918C9120E030E0842311F021E030E0EB
:100AE000C9010895823000F5E82FF0E0EE0FFF1FF6
:100AF000E352FE4F71836083882319F08130A1F4A3
:100B000008C0809169008C7F842B80936900E89AEB
:100B1000089580916900440F551F440F551F837F2E
:100B2000842B80936900E99A08951F920F920FB663
:100B30000F9211242F933F934F935F936F937F9363
:100B40008F939F93AF93BF93EF93FF938091DD01BA
:100B50009091DE01892B29F0E091DD01F091DE0119
:100B60000995FF91EF91BF91AF919F918F917F91E7
:100B70006F915F914F913F912F910F900FBE0F900A
:100B80001F9018951F920F920FB60F9211242F935A
:100B90003F934F935F936F937F938F939F93AF9305
:100BA000BF93EF93FF938091DF019091E001892B38
:100BB00029F0E091DF01F091E0010995FF91EF91BB
:100BC000BF91AF919F918F917F916F915F914F9165
:100BD0003F912F910F900FBE0F901F901895CF93BC
:100BE000DF930E9451040E94FD02CAE3D6E00E94F6
:100BF000DB022097E1F30E943A06F9CF08951F9295
:100C00000F920FB60F9211242F933F934F938F9310
:100C10009F93EF93FF938091C00082FD1DC0409190
:100C2000C60020912102309122022F5F3F4F2F7387
:100C3000307080912302909124022817390771F0B7
:100C4000E0912102F0912202EF51FE4F4083309358
:100C500022022093210202C08091C600FF91EF91F1
:100C60009F918F914F913F912F910F900FBE0F90B9
:100C70001F901895E0917502F0917602E05CFF4FAD
:100C80008191919120813181821B930B8F739070A0
:100C9000892B11F00E94FE0508951F920F920FB646
:100CA0000F9211242F933F938F939F93EF93FF9372
:100CB00020916502309166028091670290916802EE
:100CC0002817390731F48091C1008F7D8093C100CE
:100CD00014C0E0916702F0916802EB5DFD4F208146
:100CE000809167029091680201968F739070909343
:100CF0006802809367022093C600FF91EF919F9155
:100D00008F913F912F910F900FBE0F901F901895CC
:100D1000AF92BF92DF92EF92FF920F931F93CF9308
:100D2000DF93EC017A018B01DD24403081EE58071E
:100D300080E0680780E0780711F0DD24D39491E02B
:100D4000A92EB12CEC89FD89DD2069F0C50108A030
:100D500002C0880F991F0A94E2F7808360E079E06F
:100D60008DE390E005C0108260E874E88EE190E0C9
:100D7000A80197010E941A0B21503040404050407A
:100D8000569547953795279580E12030380720F014
:100D9000DD2011F0DD24D6CFE889F9893083EA8996
:100DA000FB89208319A2EE89FF89408121E030E090
:100DB000C9010C8C02C0880F991F0A94E2F7482BD6
:100DC0004083EE89FF894081C9010D8C02C0880FE4
:100DD000991F0A94E2F7482B4083EE89FF894081EE
:100DE000C9010E8C02C0880F991F0A94E2F7482BA4
:100DF0004083EE89FF8980810F8C02C0220F331F50
:100E00000A94E2F7209528232083DF91CF911F9148
:100E10000F91FF90EF90DF90BF90AF900895DC01AD
:100E20001C96ED91FC911D97E05CFF4F2191319153
:100E300080819181281B390B2F733070C90108956F
:100E4000DC011C96ED91FC911D97E05CFF4F208129
:100E50003181E054F040DF01AE5BBF4F8D919C913A
:100E600011972817390719F42FEF3FEF07C08D911D
:100E70009C91E80FF91F8081282F30E0C901089567
:100E8000DC011C96ED91FC911D97E05CFF4F2081E9
:100E90003181E054F040DF01AE5BBF4F8D919C91FA
:100EA00011972817390719F42FEF3FEF10C08D91D4
:100EB0009C911197E80FF91F20818D919C911197BA
:100EC00001968F73907011969C938E9330E0C901B8
:100ED0000895DC0191968C919197882339F054966E
:100EE000ED91FC915597808186FFF9CF91961C92E8
:100EF0000895CF93DF93EC01EE85FF85E05CFF4F13
:100F000020813181E054F0402F5F3F4F2F733070CC
:100F1000DF01AE5BBF4F8D919C9111972817390768
:100F2000D1F3E05CFF4F80819181E054F040E80F05
:100F3000F91F6083EE85FF85E05CFF4F31832083DE
:100F4000EE89FF89208181E090E00F8C02C0880F3C
:100F5000991F0A94E2F7282B208381E089A3EC896A
:100F6000FD8980818064808381E090E0DF91CF9172
:100F7000089510926C0210926B0288EE93E0A0E04C
:100F8000B0E080936D0290936E02A0936F02B093D5
:100F900070028AEB91E090936A028093690281EE7D
:100FA00091E0909376028093750285E292E09093AF
:100FB00078028093770285EC90E090937A02809398
:100FC000790284EC90E090937C0280937B0280EC29
:100FD00090E090937E0280937D0281EC90E090936C
:100FE000800280937F0282EC90E090938202809353
:100FF000810286EC90E0909384028093830284E0E7
:101000008093850283E08093860287E08093870245
:1010100085E08093880281E0809389020895CF92D1
:10102000DF92EF92FF920F931F93CF93DF937C0198
:101030006B018A01C0E0D0E00FC0D6016D916D0157
:10104000D701ED91FC910190F081E02DC701099548
:10105000C80FD91F015010400115110571F7CE01BD
:10106000DF91CF911F910F91FF90EF90DF90CF9084
:101070000895EF92FF920F931F938C01DC01ED9185
:10108000FC910190F081E02D6DE009957C01D80183
:10109000ED91FC910190F081E02DC8016AE0099585
:1010A0009C012E0D3F1DC9011F910F91FF90EF90E4
:1010B0000895CF93DF93EC016115710519F420E0D9
:1010C00030E00FC0DB010D900020E9F71197A61B5F
:1010D000B70BE881F9810280F381E02DAD0109951C
:1010E0009C01C901DF91CF9108954F925F927F9249
:1010F0008F929F92AF92BF92CF92DF92EF92FF9228
:101100000F931F93DF93CF93CDB7DEB7A1970FB6A1
:10111000F894DEBF0FBECDBF2C01742ECB01223060
:1011200008F42AE019A231E2C32ED12CCC0EDD1E28
:10113000822E9924AA24BB24672D752FA501940122
:101140000E941A0B79018A01C801B701A501940117
:101150000E94E80A472D461B0894C108D1084A306E
:1011600014F4405D01C0495CF6014083E114F104D0
:101170000105110521F07E2C5F2DC801DDCFC201D4
:10118000B6010E945908A1960FB6F894DEBF0FBEB3
:10119000CDBFCF91DF911F910F91FF90EF90DF9026
:1011A000CF90BF90AF909F908F907F905F904F9027
:1011B0000895CF92DF92EF92FF920F931F93CF93F8
:1011C000DF93EC016A017B012115310541F4E881CF
:1011D000F9810190F081E02D642F09951FC02A301C
:1011E0003105D1F477FF17C0E881F9810190F081D2
:1011F000E02D6DE209958C0144275527BA014C1961
:101200005D096E097F09CE012AE00E9475089801E8
:10121000280F391F04C02AE00E9475089C01C901EB
:10122000DF91CF911F910F91FF90EF90DF90CF90C2
:101230000895EF92FF920F931F937B019A0100276D
:10124000F7FC0095102FB801A7010E94D9081F9143
:101250000F91FF90EF900895CF92DF92EF92FF925F
:101260000F931F936C017B019A010027F7FC0095F7
:10127000102FB801A7010E94D9088C01C6010E9455
:101280003908080F191FC8011F910F91FF90EF90A7
:10129000DF90CF9008950E9459080895EF92FF9231
:1012A0000F931F937C010E9459088C01C7010E9473
:1012B0003908080F191FC8011F910F91FF90EF9077
:1012C00008955058BB27AA270ED0E5C0D6D030F0DD
:1012D000DBD020F031F49F3F11F41EF4CBC00EF4AC
:1012E000E095E7FBC1C0E92FE7D080F3BA176207AA
:1012F00073078407950718F071F49EF5FFC00EF48C
:10130000E0950B2EBA2FA02D0B01B90190010C0115
:10131000CA01A0011124FF27591B99F0593F50F42D
:10132000503E68F11A16F040A22F232F342F442785
:10133000585FF3CF469537952795A795F04053957D
:10134000C9F77EF41F16BA0B620B730B840BBAF04D
:101350009150A1F0FF0FBB1F661F771F881FC2F7B8
:101360000EC0BA0F621F731F841F48F487957795CC
:101370006795B795F7959E3F08F0B3CF9395880F83
:1013800008F09927EE0F97958795089504D06894F3
:10139000B111B5C0089598D088F09F5790F0B92F3B
:1013A0009927B751A0F0D1F0660F771F881F991FBA
:1013B0001AF0BA95C9F712C0B13081F09FD0B1E0F0
:1013C00008959CC0672F782F8827B85F39F0B93F00
:1013D000CCF3869577956795B395D9F73EF49095BC
:1013E0008095709561957F4F8F4F9F4F0895E8943A
:1013F00009C097FB3EF490958095709561957F4F5D
:101400008F4F9F4F9923A9F0F92F96E9BB2793950A
:10141000F695879577956795B795F111F8CFFAF41A
:10142000BB0F11F460FF1BC06F5F7F4F8F4F9F4F4B
:1014300016C0882311F096E911C0772321F09EE8A9
:10144000872F762F05C0662371F096E8862F70E00F
:1014500060E02AF09A95660F771F881FDAF7880FE9
:101460009695879597F9089597F99F6780E870E0BA
:1014700060E008959FEF80EC089500240A9416160A
:10148000170618060906089500240A941216130672
:10149000140605060895092E0394000C11F4882300
:1014A00052F0BB0F40F4BF2B11F460FF04C06F5F1C
:1014B0007F4F8F4F9F4F089557FD9058440F551FF2
:1014C00059F05F3F71F04795880F97FB991F61F0C6
:1014D0009F3F79F087950895121613061406551F3D
:1014E000F2CF4695F1DF08C0161617061806991FA9
:1014F000F1CF86957105610508940895E894BB279E
:1015000066277727CB0197F908950BD0C4CFB5DFB5
:1015100028F0BADF18F0952309F0A6CFABCF11243D
:10152000EECFCADFA0F3959FD1F3950F50E0551F82
:10153000629FF001729FBB27F00DB11D639FAA2728
:10154000F00DB11DAA1F649F6627B00DA11D661F77
:10155000829F2227B00DA11D621F739FB00DA11D98
:10156000621F839FA00D611D221F749F3327A00D52
:10157000611D231F849F600D211D822F762F6A2FEE
:1015800011249F5750408AF0E1F088234AF0EE0F73
:10159000FF1FBB1F661F771F881F91505040A9F780
:1015A0009E3F510570F060CFAACF5F3FECF3983EAD
:1015B000DCF3869577956795B795F795E7959F5FE7
:1015C000C1F7FE2B880F911D9695879597F9089581
:1015D000629FD001739FF001829FE00DF11D649F17
:1015E000E00DF11D929FF00D839FF00D749FF00DA3
:1015F000659FF00D9927729FB00DE11DF91F639F44
:10160000B00DE11DF91FBD01CF011124089597FB15
:10161000092E07260AD077FD04D02ED006D0002050
:101620001AF4709561957F4F0895F6F7909581951E
:101630009F4F0895A1E21A2EAA1BBB1BFD010DC0EE
:10164000AA1FBB1FEE1FFF1FA217B307E407F50772
:1016500020F0A21BB30BE40BF50B661F771F881F4E
:10166000991F1A9469F760957095809590959B01E4
:10167000AC01BD01CF010895AA1BBB1B51E107C0FE
:10168000AA1FBB1FA617B70710F0A61BB70B881F12
:10169000991F5A95A9F780959095BC01CD010895A1
:1016A000EE0FFF1F0590F491E02D0994F894FFCF01
:1016B000474F212D2D2D2D2D2D2D2D2D2D2D2D2D2A
:1016C0002D2D2D2D2D2D2D2D2D2D2D2D2D2D2D2D4A
:1016D0002D2D2D2D2D2D2D2D2D2D2D2D2D2D2D2D3A
:1016E0002D00646966663A200020202020202020FA
:1016F00073706565645F523A20002020202020200E
:101700002073706565645F4C3A20002020206D6F67
:1017100064653A2020202000656E635F636F756EFC
:10172000745F4C3A2000202020202020656E635FEB
:10173000636F756E745F523A2000706F73745F65EB
:101740006E635F636F756E745F4C3A2000202020DB
:10175000202020706F73745F656E635F636F756EBA
:10176000745F523A20000000000079070F080F074D
:0617700040072007690795
:00000001FF
