:100000000C9462000C94DF060C940C070C948A008C
:100010000C948A000C948A000C948A000C948A0038
:100020000C948A000C948A000C948A000C948A0028
:100030000C948A000C948A000C948A000C948A0018
:100040000C94FA040C948A000C9449070C949707BA
:100050000C948A000C948A000C948A000C948A00F8
:100060000C948A000C948A000000000024002700F1
:100070002A0000000000250028002B0000000000DE
:1000800023002600290004040404040404040202DA
:100090000202020203030303030301020408102007
:1000A0004080010204081020010204081020000012
:1000B0000007000201000003040600000000000029
:1000C0000000030911241FBECFEFD8E0DEBFCDBF73
:1000D00011E0A0E0B1E0E6E4F9E102C005900D9284
:1000E000A63CB107D9F712E0A6ECB1E001C01D9221
:1000F000A339B107E1F710E0C4ECD0E004C02297C7
:10010000FE010E949D0CC23CD107C9F70E9439072D
:100110000C94A10C0C9400008091CA019091CB0129
:1001200001969093CB018093CA0108958091CC01F0
:100130009091CD0101969093CD018093CC010895CB
:1001400088E060E00E94150685E060E00E941506E8
:1001500087E060E00E94150684E060E00E941506DA
:1001600008952F923F924F925F926F927F928F925B
:100170009F92AF92BF92CF92DF92EF92FF920F9336
:100180001F93DF93CF93CDB7DEB728970FB6F894C0
:10019000DEBF0FBECDBF1C014B014130510551F4F4
:1001A00065E0A62EB12C57E0C52ED12C44E0442E9C
:1001B000512C29C04230510551F434E0A32EB12C0A
:1001C00028E0C22ED12C95E0492E512C0CC0433092
:1001D000510569F485E0A82EB12C08E0C02ED12C81
:1001E00014E0412E512CB7E06B2E712C1CC0443012
:1001F000510569F4A4E0AA2EB12CF7E0CF2ED12C42
:10020000E5E04E2E512C78E0672E712C0CC068E092
:10021000A62EB12C54E0C52ED12C47E0442E512CF3
:1002200035E0632E712C1092C7011092C601109216
:10023000C9011092C8011092D7011092D601909274
:10024000C9018092C80194012D5F3F4F38872F83E9
:1002500036E48316910414F5AF81B885BD01882773
:1002600077FD8095982F0E94430B7B018C01B40190
:10027000882777FD8095982F0E94430B2DEC3CEC4E
:100280004CEC5DE30E94F70B9B01AC01C801B70188
:100290000E94AC0A0E94100B78876F8389E06F81FF
:1002A00078850E949A046091C8017091C9018AE022
:1002B0000E949A04AA828A2D61E00E941506C982D2
:1002C0008C2D61E00E94150681E792E060E071E00C
:1002D0000E94980A66E970E080E090E00E94420582
:1002E0001092CB011092CA011092CD011092CC0154
:1002F000C101AA2797FDA095BA2F8B839C83AD835C
:10030000BE8321E0822E912C82C16091CC0170913C
:10031000CD01882777FD8095982F0E94430BA60179
:1003200095010E94F30B1816A4F48091C8019091D6
:10033000C90101979093C9018093C8019092D70198
:100340008092D6016091C8017091C9018AE00E9433
:100350009A048091CA019091CB012091CC013091F7
:10036000CD01821B930B9093CF018093CE0180919E
:10037000CE019091CF01892B21F41092D9011092D6
:10038000D8018091CE019091CF01181619060CF07A
:1003900072C08091CE019091CF014097CCF1A2E044
:1003A000B0E0B093D901A093D8019092D10180928E
:1003B000D0018091CE019091CF01C39714F1E3E079
:1003C000F0E0F093D901E093D8019092D3018092AC
:1003D000D2018091CE019091CF018E975CF024E004
:1003E00030E03093D9012093D8019092D5018092CA
:1003F000D4011EC083E090E09093D9018093D8018E
:1004000013C0A2E0B0E0B093D901A093D80108C016
:100410009092D9018092D8011092D1011092D0010E
:100420001092D3011092D2011092D5011092D401F2
:100430008091D0019091D1012091D2013091D301CE
:100440004091D4015091D501820F931F0196840FE2
:10045000951FEF81F885E80FF91FF887EF83E13FDB
:10046000F10524F020EF30E038872F8389E06F8199
:1004700078850E949A048091CE019091CF0197FFD8
:1004800088C08091CE019091CF01815F9F4F0CF089
:100490003DC08FEF9FEF9093D9018093D801909248
:1004A000D1018092D0018091CE019091CF018D5DDC
:1004B0009F4F2CF5EDEFFFEFF093D901E093D801BA
:1004C00022E030E03093D3012093D2018091CE011D
:1004D0009091CF018E5C9F4F5CF48CEF9FEF9093D7
:1004E000D9018093D8019092D5018092D40120C087
:1004F000ADEFBFEFB093D901A093D80115C0EEEFD7
:10050000FFEFF093D901E093D8010AC02FEF3FEF3E
:100510003093D9012093D8011092D1011092D001CB
:100520001092D3011092D2011092D5011092D401F1
:100530008091D6019091D7012091D0013091D101C5
:100540004091D2015091D3016091D4017091D501B5
:10055000841B950B861B970B20953095820F931F5C
:10056000AF81B885A80FB91FB887AF83B7FF03C0A5
:1005700018861F8209C0EF81F885E13FF10524F05C
:1005800020EF30E038872F8389E06F8178850E94E3
:100590009A0481E792E062E371E00E94950A60911B
:1005A000CE017091CF0181E792E04AE050E00E94D5
:1005B000630A81E792E069E371E00E94950A81E7AE
:1005C00092E06F8178854AE050E00E94630A81E7FB
:1005D00092E06AE471E00E94950A6091C80170910E
:1005E000C90181E792E04AE050E00E94630A81E796
:1005F00092E06BE571E00E94950A6091D8017091DC
:10060000D90181E792E04AE050E00E94760A8091A9
:10061000CA019091CB01821593053CF08091CC01E9
:100620009091CD018215930514F5E090CA01F090E8
:10063000CB016B817C818D819E810E94430B20E0E8
:1006400030E040E05FE30E94F70B5B016C010027A4
:10065000F7FC0095102FC801B7010E94430BA601BB
:1006600095010E94F30B18160CF44FCE72CE81E761
:1006700092E068E671E00E94950A6091CA0170916B
:10068000CB0181E792E04AE050E00E94630A81E7F3
:1006900092E066E771E00E94950A6091CC0170914A
:1006A000CD0181E792E04AE050E00E94760A8A811B
:1006B00060E00E941506898160E00E94150689E0CD
:1006C00060EF70E00E949A048AE060EF70E00E94A0
:1006D0009A04842D61E00E941506862D61E00E9437
:1006E00015066FE570E080E090E00E944205842DE1
:1006F00060E00E941506862D60E00E94150661E00C
:1007000070E080E090E00E9442058A8161E00E94F2
:100710001506898161E00E9415066AE070E080E0BC
:1007200090E00E9442058A8160E00E94150689815E
:1007300060E00E94150664E670E080E090E00E94B0
:10074000420581E792E06AE871E00E94950A6091B3
:10075000CA017091CB0181E792E04AE050E00E942B
:10076000630A81E792E06DE971E00E94950A609169
:10077000CC017091CD0181E792E04AE050E00E9407
:10078000760A1092CF011092CE0128960FB6F894F7
:10079000DEBF0FBECDBFCF91DF911F910F91FF90B4
:1007A000EF90DF90CF90BF90AF909F908F907F9011
:1007B0006F905F904F903F902F90089586E00E9439
:1007C0006906892BD9F38DE061E00E94150668EE79
:1007D00073E080E090E00E9442058091DA01909100
:1007E000DB0187599C4F67E870E041E050E00E94D0
:1007F000B10060E971E080E090E00E9442058DED7B
:1008000092E069E570E043E050E00E94B10060E9E9
:1008100071E080E090E00E9442052091DA01309181
:10082000DB0182E493E0821B930B67E870E041E018
:1008300050E00E94B10060E971E080E090E00E9429
:10084000420581EE92E069E570E044E050E00E94EC
:10085000B1008DE060E00E94150660E971E080E083
:1008600090E00E9442058091DA019091DB010D96A3
:100870009093DB018093DA016091DA017091DB01E2
:1008800081E792E04AE050E00E94760A089581E70D
:1008900092E040E855E260E070E00E94D20780E01C
:1008A0006CE870E043E050E00E94BC0681E066E93D
:1008B00070E043E050E00E94BC0687E061E00E94E7
:1008C000D60588E061E00E94D60584E061E00E94E0
:1008D000D60585E061E00E94D6058DE061E00E94CA
:1008E000D6058DE060E00E94150687E060E00E947A
:1008F000150688E060E00E94150684E060E00E9432
:10090000150685E060E00E9415068AE062E370E06B
:100910000E949A0489E062E370E00E949A041092B7
:10092000CB011092CA011092CD011092CC010E940D
:10093000A00008951F93CF93DF93182FEB0161E080
:100940000E94D605209709F44AC0CF3FD10509F48B
:1009500049C0E12FF0E0E255FF4F84918330C1F0B0
:10096000843028F4813051F08230B1F50CC08630EB
:1009700019F1873049F1843079F514C084B5806865
:1009800084BDC7BD33C084B5806284BDC8BD2EC0E0
:1009900080918000806880938000D0938900C0930C
:1009A000880024C080918000806280938000D09372
:1009B0008B00C0938A001AC08091B0008068809339
:1009C000B000C093B30012C08091B00080628093E9
:1009D000B000C093B4000AC0C038D1051CF4812F08
:1009E00060E002C0812F61E00E941506DF91CF9187
:1009F0001F9108951F920F920FB60F9211242F93FB
:100A00003F938F939F93AF93BF938091E001909119
:100A1000E101A091E201B091E3013091E40101967E
:100A2000A11DB11D232F2D5F2D3720F02D570196CD
:100A3000A11DB11D2093E4018093E0019093E10199
:100A4000A093E201B093E3018091DC019091DD017C
:100A5000A091DE01B091DF010196A11DB11D80932F
:100A6000DC019093DD01A093DE01B093DF01BF9123
:100A7000AF919F918F913F912F910F900FBE0F904B
:100A80001F9018959B01AC017FB7F8948091DC0111
:100A90009091DD01A091DE01B091DF0166B5A89BC8
:100AA00005C06F3F19F00196A11DB11D7FBFBA2F80
:100AB000A92F982F8827860F911DA11DB11D62E0D7
:100AC000880F991FAA1FBB1F6A95D1F7BC012DC0C3
:100AD000FFB7F8948091DC019091DD01A091DE01D7
:100AE000B091DF01E6B5A89B05C0EF3F19F0019674
:100AF000A11DB11DFFBFBA2FA92F982F88278E0FD8
:100B0000911DA11DB11DE2E0880F991FAA1FBB1FF7
:100B1000EA95D1F7861B970B885E9340C8F2215067
:100B200030404040504068517C4F2115310541050F
:100B3000510571F60895789484B5826084BD84B5BA
:100B4000816084BD85B5826085BD85B5816085BDC8
:100B5000EEE6F0E0808181608083E1E8F0E01082E1
:100B6000808182608083808181608083E0E8F0E022
:100B7000808181608083E1EBF0E08081846080830C
:100B8000E0EBF0E0808181608083EAE7F0E0808143
:100B900084608083808182608083808181608083A3
:100BA0008081806880831092C1000895CF93DF9385
:100BB000482F50E0CA0186569F4FFC0134914A5796
:100BC0005F4FFA018491882369F190E0880F991FA3
:100BD000FC01E859FF4FA591B491FC01EE58FF4F7D
:100BE000C591D491662351F42FB7F8948C91932F2B
:100BF000909589238C93888189230BC0623061F49E
:100C00002FB7F8948C91932F909589238C9388819A
:100C1000832B88832FBF06C09FB7F8948C91832BBA
:100C20008C939FBFDF91CF910895482F50E0CA0168
:100C300082559F4FFC012491CA0186569F4FFC01AB
:100C400094914A575F4FFA013491332309F440C01D
:100C5000222351F1233071F0243028F42130A1F007
:100C6000223011F514C02630B1F02730C1F0243005
:100C7000D9F404C0809180008F7703C080918000F8
:100C80008F7D8093800010C084B58F7702C084B5BB
:100C90008F7D84BD09C08091B0008F7703C08091A3
:100CA000B0008F7D8093B000E32FF0E0EE0FFF1FC8
:100CB000EE58FF4FA591B4912FB7F894662321F415
:100CC0008C919095892302C08C91892B8C932FBF96
:100CD0000895682F70E0CB0182559F4FFC0124914D
:100CE000CB0186569F4FFC0144916A577F4FFB0111
:100CF0009491992319F420E030E03CC0222351F173
:100D0000233071F0243028F42130A1F0223011F585
:100D100014C02630B1F02730C1F02430D9F404C01B
:100D2000809180008F7703C0809180008F7D8093B9
:100D3000800010C084B58F7702C084B58F7D84BDDC
:100D400009C08091B0008F7703C08091B0008F7D83
:100D50008093B000892F90E0880F991F84589F4F8F
:100D6000FC01A591B4918C9120E030E0842311F036
:100D700021E030E0C9010895823000F5E82FF0E06D
:100D8000EE0FFF1FEB51FE4F71836083882319F034
:100D90008130A1F408C0809169008C7F842B8093FE
:100DA0006900E89A089580916900440F551F440F27
:100DB000551F837F842B80936900E99A08951F92C1
:100DC0000F920FB60F9211242F933F934F935F937F
:100DD0006F937F938F939F93AF93BF93EF93FF9303
:100DE0008091E5019091E601892B29F0E091E501E0
:100DF000F091E6010995FF91EF91BF91AF919F911D
:100E00008F917F916F915F914F913F912F910F90B3
:100E10000FBE0F901F9018951F920F920FB60F9252
:100E200011242F933F934F935F936F937F938F93EF
:100E30009F93AF93BF93EF93FF938091E7019091BE
:100E4000E801892B29F0E091E701F091E80109958B
:100E5000FF91EF91BF91AF919F918F917F916F9192
:100E60005F914F913F912F910F900FBE0F901F9068
:100E70001895CF93DF930E949B050E944704C4E816
:100E8000D7E00E94DE032097E1F30E948407F9CFA8
:100E900008951F920F920FB60F9211242F933F9334
:100EA0004F938F939F93EF93FF938091C00082FDA8
:100EB0001DC04091C6002091290230912A022F5F67
:100EC0003F4F2F73307080912B0290912C02281786
:100ED000390771F0E0912902F0912A02E751FE4FA3
:100EE000408330932A022093290202C08091C600D9
:100EF000FF91EF919F918F914F913F912F910F9083
:100F00000FBE0F901F901895E0917D02F0917E0228
:100F1000E05CFF4F8191919120813181821B930B85
:100F20008F739070892B11F00E94480708951F92CB
:100F30000F920FB60F9211242F933F938F939F938D
:100F4000EF93FF9320916D0230916E0280916F02BA
:100F5000909170022817390731F48091C1008F7D7C
:100F60008093C10014C0E0916F02F0917002E35DC4
:100F7000FD4F208180916F029091700201968F73D6
:100F800090709093700280936F022093C600FF913F
:100F9000EF919F918F913F912F910F900FBE0F90E6
:100FA0001F901895AF92BF92DF92EF92FF920F932E
:100FB0001F93CF93DF93EC017A018B01DD24403046
:100FC00081EE580780E0680780E0780711F0DD24A3
:100FD000D39491E0A92EB12CEC89FD89DD2069F034
:100FE000C50108A002C0880F991F0A94E2F7808308
:100FF00060E079E08DE390E005C0108260E874E87D
:101000008EE190E0A80197010E94790C21503040B8
:1010100040405040569547953795279580E12030C0
:10102000380720F0DD2011F0DD24D6CFE889F989DA
:101030003083EA89FB89208319A2EE89FF894081E8
:1010400021E030E0C9010C8C02C0880F991F0A947E
:10105000E2F7482B4083EE89FF894081C9010D8C5E
:1010600002C0880F991F0A94E2F7482B4083EE894B
:10107000FF894081C9010E8C02C0880F991F0A9414
:10108000E2F7482B4083EE89FF8980810F8C02C0F4
:10109000220F331F0A94E2F7209528232083DF9143
:1010A000CF911F910F91FF90EF90DF90BF90AF9085
:1010B0000895DC011C96ED91FC911D97E05CFF4FBB
:1010C0002191319180819181281B390B2F733070D0
:1010D000C9010895DC011C96ED91FC911D97E05C1F
:1010E000FF4F20813181E054F040DF01AE5BBF4F04
:1010F0008D919C9111972817390719F42FEF3FEF25
:1011000007C08D919C91E80FF91F8081282F30E056
:10111000C9010895DC011C96ED91FC911D97E05CDE
:10112000FF4F20813181E054F040DF01AE5BBF4FC3
:101130008D919C9111972817390719F42FEF3FEFE4
:1011400010C08D919C911197E80FF91F20818D910E
:101150009C91119701968F73907011969C938E932A
:1011600030E0C9010895DC0191968C919197882314
:1011700039F05496ED91FC915597808186FFF9CF17
:1011800091961C920895CF93DF93EC01EE85FF8535
:10119000E05CFF4F20813181E054F0402F5F3F4FF2
:1011A0002F733070DF01AE5BBF4F8D919C91119713
:1011B00028173907D1F3E05CFF4F80819181E0541B
:1011C000F040E80FF91F6083EE85FF85E05CFF4F7C
:1011D00031832083EE89FF89208181E090E00F8CAC
:1011E00002C0880F991F0A94E2F7282B208381E020
:1011F00089A3EC89FD8980818064808381E090E00F
:10120000DF91CF910895109274021092730288EECC
:1012100093E0A0E0B0E08093750290937602A093F3
:101220007702B09378028AEB91E0909372028093F8
:10123000710289EE91E090937E0280937D028DE2AF
:1012400092E09093800280937F0285EC90E09093EF
:1012500082028093810284EC90E0909384028093D8
:10126000830280EC90E0909386028093850281EC6B
:1012700090E0909388028093870282EC90E09093B4
:101280008A028093890286EC90E090938C0280938E
:101290008B0284E080938D0283E080938E0287E04E
:1012A00080938F0285E08093900281E08093910289
:1012B0000895CF92DF92EF92FF920F931F93CF93F7
:1012C000DF937C016B018A01C0E0D0E00FC0D60142
:1012D0006D916D01D701ED91FC910190F081E02DB0
:1012E000C7010995C80FD91F0150104001151105FC
:1012F00071F7CE01DF91CF911F910F91FF90EF9089
:10130000DF90CF900895EF92FF920F931F938C017F
:10131000DC01ED91FC910190F081E02D6DE00995EB
:101320007C01D801ED91FC910190F081E02DC80184
:101330006AE009959C012E0D3F1DC9011F910F9177
:10134000FF90EF900895CF93DF93EC016115710545
:1013500019F420E030E00FC0DB010D900020E9F728
:101360001197A61BB70BE881F9810280F381E02D6C
:10137000AD0109959C01C901DF91CF9108954F926C
:101380005F927F928F929F92AF92BF92CF92DF92A5
:10139000EF92FF920F931F93DF93CF93CDB7DEB7FA
:1013A000A1970FB6F894DEBF0FBECDBF2C01742EEF
:1013B000CB01223008F42AE019A231E2C32ED12C4D
:1013C000CC0EDD1E822E9924AA24BB24672D752FF6
:1013D000A50194010E94790C79018A01C801B70125
:1013E000A50194010E945A0C472D461B0894C10880
:1013F000D1084A3014F4405D01C0495CF6014083D5
:10140000E114F1040105110521F07E2C5F2DC801C6
:10141000DDCFC201B6010E94A309A1960FB6F894D0
:10142000DEBF0FBECDBFCF91DF911F910F91FF9017
:10143000EF90DF90CF90BF90AF909F908F907F9074
:101440005F904F900895CF92DF92EF92FF920F93AB
:101450001F93CF93DF93EC016A017B0121153105C6
:1014600041F4E881F9810190F081E02D642F099524
:101470001FC02A303105D1F477FF17C0E881F98108
:101480000190F081E02D6DE209958C0144275527EC
:10149000BA014C195D096E097F09CE012AE00E944C
:1014A000BF099801280F391F04C02AE00E94BF0914
:1014B0009C01C901DF91CF911F910F91FF90EF9097
:1014C000DF90CF900895EF92FF920F931F937B01CF
:1014D0009A010027F7FC0095102FB801A7010E9480
:1014E000230A1F910F91FF90EF900895CF92DF9202
:1014F000EF92FF920F931F936C017B019A010027DB
:10150000F7FC0095102FB801A7010E94230A8C0157
:10151000C6010E948309080F191FC8011F910F916E
:10152000FF90EF90DF90CF9008950E94A309089557
:10153000EF92FF920F931F937C010E94A3098C01ED
:10154000C7010E948309080F191FC8011F910F913D
:10155000FF90EF9008955058BB27AA270ED009C1DD
:10156000FAD030F0FFD020F031F49F3F11F41EF498
:10157000EFC00EF4E095E7FBE5C0E92F0BD180F357
:10158000BA17620773078407950718F071F49EF580
:1015900023C10EF4E0950B2EBA2FA02D0B01B9013B
:1015A00090010C01CA01A0011124FF27591B99F0D9
:1015B000593F50F4503E68F11A16F040A22F232FE5
:1015C000342F4427585FF3CF469537952795A79535
:1015D000F0405395C9F77EF41F16BA0B620B730BDC
:1015E000840BBAF09150A1F0FF0FBB1F661F771F4D
:1015F000881FC2F70EC0BA0F621F731F841F48F402
:10160000879577956795B795F7959E3F08F0B3CF87
:101610009395880F08F09927EE0F97958795089571
:1016200004D06894B111D9C00895BCD088F09F57F8
:1016300090F0B92F9927B751A0F0D1F0660F771F1E
:10164000881F991F1AF0BA95C9F712C0B13081F0FE
:10165000C3D0B1E00895C0C0672F782F8827B85F46
:1016600039F0B93FCCF3869577956795B395D9F75F
:101670003EF490958095709561957F4F8F4F9F4F69
:101680000895E89409C097FB3EF490958095709575
:1016900061957F4F8F4F9F4F9923A9F0F92F96E9BE
:1016A000BB279395F695879577956795B795F11133
:1016B000F8CFFAF4BB0F11F460FF1BC06F5F7F4FD0
:1016C0008F4F9F4F16C0882311F096E911C07723E2
:1016D00021F09EE8872F762F05C0662371F096E8EB
:1016E000862F70E060E02AF09A95660F771F881FBA
:1016F000DAF7880F9695879597F90895990F00085E
:10170000550FAA0BE0E8FEEF16161706E807F907D3
:10171000C0F012161306E407F50798F0621B730B6E
:10172000840B950B39F40A2661F0232B242B252BEF
:1017300021F408950A2609F4A140A6958FEF811D92
:10174000811D089597F99F6780E870E060E0089533
:101750009FEF80EC089500240A94161617061806C9
:101760000906089500240A941216130614060506A5
:101770000895092E0394000C11F4882352F0BB0F36
:1017800040F4BF2B11F460FF04C06F5F7F4F8F4F99
:101790009F4F089557FD9058440F551F59F05F3FD4
:1017A00071F04795880F97FB991F61F09F3F79F083
:1017B00087950895121613061406551FF2CF469505
:1017C000F1DF08C0161617061806991FF1CF869587
:1017D0007105610508940895E894BB27662777276B
:1017E000CB0197F908958ADF08F48FEF08950BD0A5
:1017F000C0CFB1DF28F0B6DF18F0952309F0A2CFF3
:10180000A7CF1124EACFC6DFA0F3959FD1F3950FA0
:1018100050E0551F629FF001729FBB27F00DB11D74
:10182000639FAA27F00DB11DAA1F649F6627B00D04
:10183000A11D661F829F2227B00DA11D621F739FED
:10184000B00DA11D621F839FA00D611D221F749FFB
:101850003327A00D611D231F849F600D211D822F42
:10186000762F6A2F11249F5750408AF0E1F0882389
:101870004AF0EE0FFF1FBB1F661F771F881F915096
:101880005040A9F79E3F510570F05CCFA6CF5F3F57
:10189000ECF3983EDCF3869577956795B795F795C9
:1018A000E7959F5FC1F7FE2B880F911D9695879551
:1018B00097F90895629FD001739FF001829FE00D18
:1018C000F11D649FE00DF11D929FF00D839FF00DBF
:1018D000749FF00D659FF00D9927729FB00DE11D6B
:1018E000F91F639FB00DE11DF91FBD01CF01112448
:1018F0000895A1E21A2EAA1BBB1BFD010DC0AA1F51
:10190000BB1FEE1FFF1FA217B307E407F50720F068
:10191000A21BB30BE40BF50B661F771F881F991FE3
:101920001A9469F760957095809590959B01AC012C
:10193000BD01CF010895EE0FFF1F0590F491E02D3A
:061940000994F894FFCFAA
:10194600474F212D2D2D2D2D2D2D2D2D2D2D2D2D91
:101956002D2D2D2D2D2D2D2D2D2D2D2D2D2D2D2DB1
:101966002D2D2D2D2D2D2D2D2D2D2D2D2D2D2D2DA1
:101976002D00646966663A20002020202020202061
:1019860073706565645F523A200020202020202075
:101996002073706565645F4C3A20002020206D6FCF
:1019A60064653A2020202000656E635F636F756E64
:1019B600745F4C3A2000202020202020656E635F53
:1019C600636F756E745F523A2000706F73745F6553
:1019D6006E635F636F756E745F4C3A200020202043
:1019E600202020706F73745F656E635F636F756E22
:1019F600745F523A200000000000C30859095908D4
:061A06008A086A08B3081B
:00000001FF
