:100000000C9462000C948A000C948A000C948A0070
:100010000C948A000C948A000C948A000C948A0038
:100020000C948A000C948A000C948A000C948A0028
:100030000C948A000C948A000C948A000C948A0018
:100040000C9460010C948A000C947A030C94C803FD
:100050000C948A000C948A000C948A000C948A00F8
:100060000C948A000C948A000000000024002700F1
:100070002A0000000000250028002B0000000000DE
:1000800023002600290004040404040404040202DA
:100090000202020203030303030301020408102007
:1000A0004080010204081020010204081020000012
:1000B0000007000201000003040600000000000029
:1000C0000000340511241FBECFEFD8E0DEBFCDBF46
:1000D00011E0A0E0B1E0ECEAFDE002C005900D9275
:1000E000A832B107D9F711E0A8E2B1E001C01D9232
:1000F000A33EB107E1F710E0C4ECD0E004C02297C2
:10010000FE010E94D006C23CD107C9F70E946A03D3
:100110000C94D4060C9400008CE00E947B02892B86
:1001200049F4109228011092290110922A0110928C
:100130002B01089567E070E080E090E00E94A80144
:100140008CE00E947B02892B81F08CE061E020E44E
:1001500032E44FE050E00E94CE0260932801709399
:10016000290180932A0190932B018091280190917D
:100170002901A0912A01B0912B010097A105B10599
:1001800009F486C08091280190912901A0912A014B
:10019000B0912B01885A944EAF4FBF4F80932801E6
:1001A00090932901A0932A01B0932B01209128015B
:1001B0003091290140912A0150912B018091130126
:1001C00090911401A0911501B091160128173907DB
:1001D0004A075B0780F48091280190912901A09142
:1001E0002A01B0912B018093130190931401A093E5
:1001F0001501B093160120912801309129014091F9
:100200002A0150912B0180912C0190912D01A091F8
:100210002E01B0912F0182179307A407B507C0F5EF
:100220008091280190912901A0912A01B0912B0180
:1002300080932C0190932D01A0932E01B0932F0158
:1002400081EC91E060E071E00E947706409113013B
:1002500050911401609115017091160181EC91E0AB
:100260002AE030E00E94540681EC91E065E071E004
:100270000E94770640912C0150912D0160912E0132
:1002800070912F0181EC91E02AE030E00E9463063A
:1002900008950F931F938CE060E00E943C0201ECF4
:1002A00011E0C80140E855E260E070E00E940304FC
:1002B000C8016BE071E00E947A061F910F910895CA
:1002C0001F920F920FB60F9211242F933F938F938B
:1002D0009F93AF93BF938091340190913501A0918A
:1002E0003601B0913701309138010196A11DB11D41
:1002F000232F2D5F2D3720F02D570196A11DB11D05
:10030000209338018093340190933501A0933601F6
:10031000B09337018091300190913101A091320169
:10032000B09133010196A11DB11D809330019093CE
:100330003101A0933201B0933301BF91AF919F91EE
:100340008F913F912F910F900FBE0F901F90189596
:100350009B01AC017FB7F8948091300190913101FD
:10036000A0913201B091330166B5A89B05C06F3FE3
:1003700019F00196A11DB11D7FBFBA2FA92F982F8B
:100380008827860F911DA11DB11D62E0880F991F5E
:10039000AA1FBB1F6A95D1F7BC012DC0FFB7F89407
:1003A0008091300190913101A0913201B0913301DF
:1003B000E6B5A89B05C0EF3F19F00196A11DB11D40
:1003C000FFBFBA2FA92F982F88278E0F911DA11D2F
:1003D000B11DE2E0880F991FAA1FBB1FEA95D1F754
:1003E000861B970B885E9340C8F2215030404040F6
:1003F000504068517C4F211531054105510571F67A
:100400000895789484B5826084BD84B5816084BD8C
:1004100085B5826085BD85B5816085BDEEE6F0E07D
:10042000808181608083E1E8F0E0108280818260D9
:100430008083808181608083E0E8F0E0808181605A
:100440008083E1EBF0E0808184608083E0EBF0E08A
:10045000808181608083EAE7F0E08081846080832E
:1004600080818260808380818160808380818068D8
:1004700080831092C1000895CF93DF93482F50E0FE
:10048000CA0186569F4FFC0134914A575F4FFA01CB
:100490008491882369F190E0880F991FFC01E85945
:1004A000FF4FA591B491FC01EE58FF4FC591D49137
:1004B000662351F42FB7F8948C91932F909589234C
:1004C0008C93888189230BC0623061F42FB7F89434
:1004D0008C91932F909589238C938881832B88838B
:1004E0002FBF06C09FB7F8948C91832B8C939FBF2E
:1004F000DF91CF910895682F70E0CB0182559F4F17
:10050000FC012491CB0186569F4FFC0144916A5710
:100510007F4FFB019491992319F420E030E03CC017
:10052000222351F1233071F0243028F42130A1F03E
:10053000223011F514C02630B1F02730C1F024303C
:10054000D9F404C0809180008F7703C0809180002F
:100550008F7D8093800010C084B58F7702C084B5F2
:100560008F7D84BD09C08091B0008F7703C08091DA
:10057000B0008F7D8093B000892F90E0880F991F85
:1005800084589F4FFC01A591B4918C9120E030E0FC
:10059000842311F021E030E0C90108958F929F92E9
:1005A000AF92BF92CF92DF92EF92FF920F931F9381
:1005B000CF93DF93A82FB0E0CD0186569F4FFC016B
:1005C0008490AA57BF4FFD018491662311F49924AA
:1005D00001C0982C6FEFA62E6FEFB62E6FEFC62ED0
:1005E0006FE0D62EA222B322C422D522682F70E05B
:1005F000660F771F64587F4FEE24FF248701FB01AD
:10060000A591B4910BC0EA14FB040C051D0509F477
:100610004EC00894E11CF11C011D111D8C91882114
:10062000891589F30CC0EA14FB040C051D0509F4B7
:100630003EC00894E11CF11C011D111D03C0FB010B
:10064000A591B4918C918821891569F720E030E05B
:1006500040E050E0FB01C591D4910FC0DA01C9011F
:100660008E0D9F1DA01FB11F8A159B05AC05BD05F2
:10067000F1F02F5F3F4F4F4F5F4F888188218915E1
:1006800069F3CA01B90125E130E040E050E00E9481
:100690008D069B01AC01205F3F4F4F4F5F4F84E0C1
:1006A00056954795379527958A95D1F704C020E050
:1006B00030E040E050E0B901CA01DF91CF911F91D5
:1006C0000F91FF90EF90DF90CF90BF90AF909F90F1
:1006D0008F900895CF93DF930E9401020E944901F9
:1006E000C5EBD3E00E948C002097E1F30E94B50394
:1006F000F9CF08951F920F920FB60F9211242F93E6
:100700003F934F938F939F93EF93FF938091C000FC
:1007100082FD1DC04091C6002091790130917A017F
:100720002F5F3F4F2F73307080917B0190917C0140
:100730002817390771F0E0917901F0917A01E75CAF
:10074000FE4F408330937A012093790102C080915B
:10075000C600FF91EF919F918F914F913F912F9103
:100760000F900FBE0F901F901895E091CD01F09162
:10077000CE01E05CFF4F8191919120813181821BFC
:10078000930B8F739070892B11F00E947903089559
:100790001F920F920FB60F9211242F933F938F93B6
:1007A0009F93EF93FF932091BD013091BE01809103
:1007B000BF019091C0012817390731F48091C10021
:1007C0008F7D8093C10014C0E091BF01F091C00102
:1007D000E358FE4F20818091BF019091C0010196A6
:1007E0008F7390709093C0018093BF012093C600D7
:1007F000FF91EF919F918F913F912F910F900FBE9D
:100800000F901F901895AF92BF92DF92EF92FF92D8
:100810000F931F93CF93DF93EC017A018B01DD24BB
:10082000403081EE580780E0680780E0780711F0DB
:10083000DD24D39491E0A92EB12CEC89FD89DD2033
:1008400069F0C50108A002C0880F991F0A94E2F759
:10085000808360E079E08DE390E005C0108260E87D
:1008600074E88EE190E0A80197010E94AC06215047
:10087000304040405040569547953795279580E148
:100880002030380720F0DD2011F0DD24D6CFE889B4
:10089000F9893083EA89FB89208319A2EE89FF89CF
:1008A000408121E030E0C9010C8C02C0880F991F03
:1008B0000A94E2F7482B4083EE89FF894081C90101
:1008C0000D8C02C0880F991F0A94E2F7482B4083D1
:1008D000EE89FF894081C9010E8C02C0880F991FE3
:1008E0000A94E2F7482B4083EE89FF8980810F8CC0
:1008F00002C0220F331F0A94E2F720952823208399
:10090000DF91CF911F910F91FF90EF90DF90BF90FB
:10091000AF900895DC011C96ED91FC911D97E05C71
:10092000FF4F2191319180819181281B390B2F73C9
:100930003070C9010895DC011C96ED91FC911D9762
:10094000E05CFF4F20813181E054F040DF01AE5B7D
:10095000BF4F8D919C9111972817390719F42FEFEC
:100960003FEF07C08D919C91E80FF91F8081282FE0
:1009700030E0C9010895DC011C96ED91FC911D97B2
:10098000E05CFF4F20813181E054F040DF01AE5B3D
:10099000BF4F8D919C9111972817390719F42FEFAC
:1009A0003FEF10C08D919C911197E80FF91F2081A6
:1009B0008D919C91119701968F73907011969C93D5
:1009C0008E9330E0C9010895DC0191968C91919746
:1009D000882339F05496ED91FC915597808186FFDC
:1009E000F9CF91961C920895CF93DF93EC01EE8599
:1009F000FF85E05CFF4F20813181E054F0402F5FA4
:100A00003F4F2F733070DF01AE5BBF4F8D919C91D4
:100A1000119728173907D1F3E05CFF4F808191814E
:100A2000E054F040E80FF91F6083EE85FF85E05C3D
:100A3000FF4F31832083EE89FF89208181E090E0A0
:100A40000F8C02C0880F991F0A94E2F7282B20838D
:100A500081E089A3EC89FD8980818064808381E0C5
:100A600090E0DF91CF9108951092C4011092C301DC
:100A700088EE93E0A0E0B0E08093C5019093C601BA
:100A8000A093C701B093C8018BE191E09093C2019C
:100A90008093C10189E391E09093CE018093CD01D1
:100AA0008DE791E09093D0018093CF0185EC90E0A9
:100AB0009093D2018093D10184EC90E09093D40183
:100AC0008093D30180EC90E09093D6018093D50180
:100AD00081EC90E09093D8018093D70182EC90E074
:100AE0009093DA018093D90186EC90E09093DC0139
:100AF0008093DB0184E08093DD0183E08093DE015D
:100B000087E08093DF0185E08093E00181E08093BE
:100B1000E1010895CF92DF92EF92FF920F931F931E
:100B2000CF93DF937C016B018A01C0E0D0E00FC05E
:100B3000D6016D916D01D701ED91FC910190F0818D
:100B4000E02DC7010995C80FD91F015010400115AC
:100B5000110571F7CE01DF91CF911F910F91FF9099
:100B6000EF90DF90CF900895EF92FF920F931F9335
:100B70008C01DC01ED91FC910190F081E02D6DE0A4
:100B800009957C01D801ED91FC910190F081E02D57
:100B9000C8016AE009959C012E0D3F1DC9011F91F6
:100BA0000F91FF90EF900895CF93DF93EC016115C3
:100BB000710519F420E030E00FC0DB010D9000203A
:100BC000E9F71197A61BB70BE881F9810280F38141
:100BD000E02DAD0109959C01C901DF91CF910895E8
:100BE0004F925F927F928F929F92AF92BF92CF92DD
:100BF000DF92EF92FF920F931F93DF93CF93CDB7C6
:100C0000DEB7A1970FB6F894DEBF0FBECDBF2C01A3
:100C1000742ECB01223008F42AE019A231E2C32E4F
:100C2000D12CCC0EDD1E822E9924AA24BB24672D44
:100C3000752FA50194010E94AC0679018A01C801B3
:100C4000B701A50194010E948D06472D461B08940B
:100C5000C108D1084A3014F4405D01C0495CF60176
:100C60004083E114F1040105110521F07E2C5F2D74
:100C7000C801DDCFC201B6010E94D405A1960FB60E
:100C8000F894DEBF0FBECDBFCF91DF911F910F91C2
:100C9000FF90EF90DF90CF90BF90AF909F908F909C
:100CA0007F905F904F900895DC012115310541F44C
:100CB000ED91FC910190F081E02D642F099508954C
:100CC0000E94F0050895EF92FF920F931F937C010D
:100CD0000E9454068C01C7010E94B4059C01200F9C
:100CE000311FC9011F910F91FF90EF9008950E944D
:100CF000D4050895EF92FF920F931F937C010E94F9
:100D0000D4058C01C7010E94B405080F191FC80142
:100D10001F910F91FF90EF900895629FD001739FF4
:100D2000F001829FE00DF11D649FE00DF11D929F87
:100D3000F00D839FF00D749FF00D659FF00D9927C6
:100D4000729FB00DE11DF91F639FB00DE11DF91FEA
:100D5000BD01CF0111240895A1E21A2EAA1BBB1BCD
:100D6000FD010DC0AA1FBB1FEE1FFF1FA217B30777
:100D7000E407F50720F0A21BB30BE40BF50B661F8D
:100D8000771F881F991F1A9469F760957095809551
:100D900090959B01AC01BD01CF010895EE0FFF1F9F
:0C0DA0000590F491E02D0994F894FFCF29
:100DAC004C6F3A20002048693A200057656C636FFD
:100DBC006D6500E022000000000000F4048A058A42
:080DCC0004BB049B04E40400D5
:00000001FF
